{
	"B226328_part2.sol": {
		"Part2_token": {
			"abi": [
				{
					"inputs": [],
					"stateMutability": "nonpayable",
					"type": "constructor"
				},
				{
					"anonymous": false,
					"inputs": [
						{
							"indexed": true,
							"internalType": "address",
							"name": "to",
							"type": "address"
						},
						{
							"indexed": false,
							"internalType": "uint256",
							"name": "value",
							"type": "uint256"
						}
					],
					"name": "Mint",
					"type": "event"
				},
				{
					"anonymous": false,
					"inputs": [
						{
							"indexed": true,
							"internalType": "address",
							"name": "from",
							"type": "address"
						},
						{
							"indexed": false,
							"internalType": "uint256",
							"name": "value",
							"type": "uint256"
						}
					],
					"name": "Sell",
					"type": "event"
				},
				{
					"anonymous": false,
					"inputs": [
						{
							"indexed": true,
							"internalType": "address",
							"name": "from",
							"type": "address"
						},
						{
							"indexed": true,
							"internalType": "address",
							"name": "to",
							"type": "address"
						},
						{
							"indexed": false,
							"internalType": "uint256",
							"name": "value",
							"type": "uint256"
						}
					],
					"name": "Transfer",
					"type": "event"
				},
				{
					"stateMutability": "payable",
					"type": "fallback"
				},
				{
					"inputs": [
						{
							"internalType": "address",
							"name": "_account",
							"type": "address"
						}
					],
					"name": "balanceOf",
					"outputs": [
						{
							"internalType": "uint256",
							"name": "",
							"type": "uint256"
						}
					],
					"stateMutability": "view",
					"type": "function"
				},
				{
					"inputs": [],
					"name": "close",
					"outputs": [],
					"stateMutability": "nonpayable",
					"type": "function"
				},
				{
					"inputs": [],
					"name": "getName",
					"outputs": [
						{
							"internalType": "string",
							"name": "",
							"type": "string"
						}
					],
					"stateMutability": "view",
					"type": "function"
				},
				{
					"inputs": [],
					"name": "getPrice",
					"outputs": [
						{
							"internalType": "uint256",
							"name": "",
							"type": "uint256"
						}
					],
					"stateMutability": "view",
					"type": "function"
				},
				{
					"inputs": [],
					"name": "getSymbol",
					"outputs": [
						{
							"internalType": "string",
							"name": "",
							"type": "string"
						}
					],
					"stateMutability": "view",
					"type": "function"
				},
				{
					"inputs": [
						{
							"internalType": "address",
							"name": "to",
							"type": "address"
						},
						{
							"internalType": "uint256",
							"name": "value",
							"type": "uint256"
						}
					],
					"name": "mint",
					"outputs": [
						{
							"internalType": "bool",
							"name": "",
							"type": "bool"
						}
					],
					"stateMutability": "nonpayable",
					"type": "function"
				},
				{
					"inputs": [
						{
							"internalType": "uint256",
							"name": "value",
							"type": "uint256"
						}
					],
					"name": "sell",
					"outputs": [
						{
							"internalType": "bool",
							"name": "",
							"type": "bool"
						}
					],
					"stateMutability": "payable",
					"type": "function"
				},
				{
					"inputs": [],
					"name": "totalSupply",
					"outputs": [
						{
							"internalType": "uint256",
							"name": "",
							"type": "uint256"
						}
					],
					"stateMutability": "view",
					"type": "function"
				},
				{
					"inputs": [
						{
							"internalType": "address",
							"name": "to",
							"type": "address"
						},
						{
							"internalType": "uint256",
							"name": "value",
							"type": "uint256"
						}
					],
					"name": "transfer",
					"outputs": [
						{
							"internalType": "bool",
							"name": "",
							"type": "bool"
						}
					],
					"stateMutability": "nonpayable",
					"type": "function"
				}
			],
			"devdoc": {
				"kind": "dev",
				"methods": {},
				"version": 1
			},
			"evm": {
				"assembly": "    /* \"B226328_part2.sol\":115:3912  contract Part2_token\r... */\n  mstore(0x40, 0x80)\n    /* \"B226328_part2.sol\":594:1102  constructor() public {\r... */\n  callvalue\n  dup1\n  iszero\n  tag_1\n  jumpi\n  0x00\n  dup1\n  revert\ntag_1:\n  pop\n    /* \"B226328_part2.sol\":657:678  name = \"Custom Token\" */\n  mload(0x40)\n  dup1\n  0x40\n  add\n  0x40\n  mstore\n  dup1\n  0x0c\n  dup2\n  mstore\n  0x20\n  add\n  0x437573746f6d20546f6b656e0000000000000000000000000000000000000000\n  dup2\n  mstore\n  pop\n    /* \"B226328_part2.sol\":657:661  name */\n  0x01\n    /* \"B226328_part2.sol\":657:678  name = \"Custom Token\" */\n  swap1\n  dup1\n  mload\n  swap1\n  0x20\n  add\n  swap1\n  tag_4\n  swap3\n  swap2\n  swap1\n  tag_5\n  jump\t// in\ntag_4:\n  pop\n    /* \"B226328_part2.sol\":689:702  symbol = \"CT\" */\n  mload(0x40)\n  dup1\n  0x40\n  add\n  0x40\n  mstore\n  dup1\n  0x02\n  dup2\n  mstore\n  0x20\n  add\n  0x4354000000000000000000000000000000000000000000000000000000000000\n  dup2\n  mstore\n  pop\n    /* \"B226328_part2.sol\":689:695  symbol */\n  0x02\n    /* \"B226328_part2.sol\":689:702  symbol = \"CT\" */\n  swap1\n  dup1\n  mload\n  swap1\n  0x20\n  add\n  swap1\n  tag_6\n  swap3\n  swap2\n  swap1\n  tag_5\n  jump\t// in\ntag_6:\n  pop\n    /* \"B226328_part2.sol\":721:724  600 */\n  0x0258\n    /* \"B226328_part2.sol\":713:718  price */\n  0x03\n    /* \"B226328_part2.sol\":713:724  price = 600 */\n  dup2\n  swap1\n  sstore\n  pop\n    /* \"B226328_part2.sol\":825:835  msg.sender */\n  caller\n    /* \"B226328_part2.sol\":808:813  owner */\n  0x00\n  dup1\n    /* \"B226328_part2.sol\":808:836  owner =  payable(msg.sender) */\n  0x0100\n  exp\n  dup2\n  sload\n  dup2\n  0xffffffffffffffffffffffffffffffffffffffff\n  mul\n  not\n  and\n  swap1\n  dup4\n  0xffffffffffffffffffffffffffffffffffffffff\n  and\n  mul\n  or\n  swap1\n  sstore\n  pop\n    /* \"B226328_part2.sol\":913:917  true */\n  0x01\n    /* \"B226328_part2.sol\":900:905  roles */\n  0x06\n    /* \"B226328_part2.sol\":900:912  roles[owner] */\n  0x00\n    /* \"B226328_part2.sol\":906:911  owner */\n  dup1\n  0x00\n  swap1\n  sload\n  swap1\n  0x0100\n  exp\n  swap1\n  div\n  0xffffffffffffffffffffffffffffffffffffffff\n  and\n    /* \"B226328_part2.sol\":900:912  roles[owner] */\n  0xffffffffffffffffffffffffffffffffffffffff\n  and\n  0xffffffffffffffffffffffffffffffffffffffff\n  and\n  dup2\n  mstore\n  0x20\n  add\n  swap1\n  dup2\n  mstore\n  0x20\n  add\n  0x00\n  keccak256\n  0x00\n    /* \"B226328_part2.sol\":900:917  roles[owner]=true */\n  0x0100\n  exp\n  dup2\n  sload\n  dup2\n  0xff\n  mul\n  not\n  and\n  swap1\n  dup4\n  iszero\n  iszero\n  mul\n  or\n  swap1\n  sstore\n  pop\n    /* \"B226328_part2.sol\":1007:1014  1000000 */\n  0x0f4240\n    /* \"B226328_part2.sol\":993:1004  totalsupply */\n  0x04\n    /* \"B226328_part2.sol\":993:1014  totalsupply = 1000000 */\n  dup2\n  swap1\n  sstore\n  pop\n    /* \"B226328_part2.sol\":1043:1054  totalsupply */\n  sload(0x04)\n    /* \"B226328_part2.sol\":1025:1033  balances */\n  0x05\n    /* \"B226328_part2.sol\":1025:1040  balances[owner] */\n  0x00\n    /* \"B226328_part2.sol\":1034:1039  owner */\n  dup1\n  0x00\n  swap1\n  sload\n  swap1\n  0x0100\n  exp\n  swap1\n  div\n  0xffffffffffffffffffffffffffffffffffffffff\n  and\n    /* \"B226328_part2.sol\":1025:1040  balances[owner] */\n  0xffffffffffffffffffffffffffffffffffffffff\n  and\n  0xffffffffffffffffffffffffffffffffffffffff\n  and\n  dup2\n  mstore\n  0x20\n  add\n  swap1\n  dup2\n  mstore\n  0x20\n  add\n  0x00\n  keccak256\n    /* \"B226328_part2.sol\":1025:1054  balances[owner] = totalsupply */\n  dup2\n  swap1\n  sstore\n  pop\n    /* \"B226328_part2.sol\":1075:1080  owner */\n  0x00\n  dup1\n  sload\n  swap1\n  0x0100\n  exp\n  swap1\n  div\n  0xffffffffffffffffffffffffffffffffffffffff\n  and\n    /* \"B226328_part2.sol\":1070:1094  Mint(owner, totalsupply) */\n  0xffffffffffffffffffffffffffffffffffffffff\n  and\n  0x0f6798a560793a54c3bcfe86a93cde1e73087d944c0ea20544137d4121396885\n    /* \"B226328_part2.sol\":1082:1093  totalsupply */\n  sload(0x04)\n    /* \"B226328_part2.sol\":1070:1094  Mint(owner, totalsupply) */\n  mload(0x40)\n  tag_7\n  swap2\n  swap1\n  tag_8\n  jump\t// in\ntag_7:\n  mload(0x40)\n  dup1\n  swap2\n  sub\n  swap1\n  log2\n    /* \"B226328_part2.sol\":115:3912  contract Part2_token\r... */\n  jump(tag_9)\ntag_5:\n  dup3\n  dup1\n  sload\n  tag_10\n  swap1\n  tag_11\n  jump\t// in\ntag_10:\n  swap1\n  0x00\n  mstore\n  keccak256(0x00, 0x20)\n  swap1\n  0x1f\n  add\n  0x20\n  swap1\n  div\n  dup2\n  add\n  swap3\n  dup3\n  tag_13\n  jumpi\n  0x00\n  dup6\n  sstore\n  jump(tag_12)\ntag_13:\n  dup3\n  0x1f\n  lt\n  tag_14\n  jumpi\n  dup1\n  mload\n  not(0xff)\n  and\n  dup4\n  dup1\n  add\n  or\n  dup6\n  sstore\n  jump(tag_12)\ntag_14:\n  dup3\n  dup1\n  add\n  0x01\n  add\n  dup6\n  sstore\n  dup3\n  iszero\n  tag_12\n  jumpi\n  swap2\n  dup3\n  add\ntag_15:\n  dup3\n  dup2\n  gt\n  iszero\n  tag_16\n  jumpi\n  dup3\n  mload\n  dup3\n  sstore\n  swap2\n  0x20\n  add\n  swap2\n  swap1\n  0x01\n  add\n  swap1\n  jump(tag_15)\ntag_16:\ntag_12:\n  pop\n  swap1\n  pop\n  tag_17\n  swap2\n  swap1\n  tag_18\n  jump\t// in\ntag_17:\n  pop\n  swap1\n  jump\t// out\ntag_18:\ntag_19:\n  dup1\n  dup3\n  gt\n  iszero\n  tag_20\n  jumpi\n  0x00\n  dup2\n  0x00\n  swap1\n  sstore\n  pop\n  0x01\n  add\n  jump(tag_19)\ntag_20:\n  pop\n  swap1\n  jump\t// out\n    /* \"#utility.yul\":7:125   */\ntag_22:\n    /* \"#utility.yul\":94:118   */\n  tag_24\n    /* \"#utility.yul\":112:117   */\n  dup2\n    /* \"#utility.yul\":94:118   */\n  tag_25\n  jump\t// in\ntag_24:\n    /* \"#utility.yul\":89:92   */\n  dup3\n    /* \"#utility.yul\":82:119   */\n  mstore\n    /* \"#utility.yul\":7:125   */\n  pop\n  pop\n  jump\t// out\n    /* \"#utility.yul\":131:353   */\ntag_8:\n    /* \"#utility.yul\":224:228   */\n  0x00\n    /* \"#utility.yul\":262:264   */\n  0x20\n    /* \"#utility.yul\":251:260   */\n  dup3\n    /* \"#utility.yul\":247:265   */\n  add\n    /* \"#utility.yul\":239:265   */\n  swap1\n  pop\n    /* \"#utility.yul\":275:346   */\n  tag_27\n    /* \"#utility.yul\":343:344   */\n  0x00\n    /* \"#utility.yul\":332:341   */\n  dup4\n    /* \"#utility.yul\":328:345   */\n  add\n    /* \"#utility.yul\":319:325   */\n  dup5\n    /* \"#utility.yul\":275:346   */\n  tag_22\n  jump\t// in\ntag_27:\n    /* \"#utility.yul\":131:353   */\n  swap3\n  swap2\n  pop\n  pop\n  jump\t// out\n    /* \"#utility.yul\":359:436   */\ntag_25:\n    /* \"#utility.yul\":396:403   */\n  0x00\n    /* \"#utility.yul\":425:430   */\n  dup2\n    /* \"#utility.yul\":414:430   */\n  swap1\n  pop\n    /* \"#utility.yul\":359:436   */\n  swap2\n  swap1\n  pop\n  jump\t// out\n    /* \"#utility.yul\":442:762   */\ntag_11:\n    /* \"#utility.yul\":486:492   */\n  0x00\n    /* \"#utility.yul\":523:524   */\n  0x02\n    /* \"#utility.yul\":517:521   */\n  dup3\n    /* \"#utility.yul\":513:525   */\n  div\n    /* \"#utility.yul\":503:525   */\n  swap1\n  pop\n    /* \"#utility.yul\":570:571   */\n  0x01\n    /* \"#utility.yul\":564:568   */\n  dup3\n    /* \"#utility.yul\":560:572   */\n  and\n    /* \"#utility.yul\":591:609   */\n  dup1\n    /* \"#utility.yul\":581:662   */\n  tag_30\n  jumpi\n    /* \"#utility.yul\":647:651   */\n  0x7f\n    /* \"#utility.yul\":639:645   */\n  dup3\n    /* \"#utility.yul\":635:652   */\n  and\n    /* \"#utility.yul\":625:652   */\n  swap2\n  pop\n    /* \"#utility.yul\":581:662   */\ntag_30:\n    /* \"#utility.yul\":709:711   */\n  0x20\n    /* \"#utility.yul\":701:707   */\n  dup3\n    /* \"#utility.yul\":698:712   */\n  lt\n    /* \"#utility.yul\":678:696   */\n  dup2\n    /* \"#utility.yul\":675:713   */\n  eq\n    /* \"#utility.yul\":672:756   */\n  iszero\n  tag_31\n  jumpi\n    /* \"#utility.yul\":728:746   */\n  tag_32\n  tag_33\n  jump\t// in\ntag_32:\n    /* \"#utility.yul\":672:756   */\ntag_31:\n    /* \"#utility.yul\":493:762   */\n  pop\n    /* \"#utility.yul\":442:762   */\n  swap2\n  swap1\n  pop\n  jump\t// out\n    /* \"#utility.yul\":768:948   */\ntag_33:\n    /* \"#utility.yul\":816:893   */\n  0x4e487b7100000000000000000000000000000000000000000000000000000000\n    /* \"#utility.yul\":813:814   */\n  0x00\n    /* \"#utility.yul\":806:894   */\n  mstore\n    /* \"#utility.yul\":913:917   */\n  0x22\n    /* \"#utility.yul\":910:911   */\n  0x04\n    /* \"#utility.yul\":903:918   */\n  mstore\n    /* \"#utility.yul\":937:941   */\n  0x24\n    /* \"#utility.yul\":934:935   */\n  0x00\n    /* \"#utility.yul\":927:942   */\n  revert\n    /* \"B226328_part2.sol\":115:3912  contract Part2_token\r... */\ntag_9:\n  dataSize(sub_0)\n  dup1\n  dataOffset(sub_0)\n  0x00\n  codecopy\n  0x00\n  return\nstop\n\nsub_0: assembly {\n        /* \"B226328_part2.sol\":115:3912  contract Part2_token\r... */\n      mstore(0x40, 0x80)\n      jumpi(tag_1, lt(calldatasize, 0x04))\n      shr(0xe0, calldataload(0x00))\n      dup1\n      0x43d726d6\n      gt\n      tag_12\n      jumpi\n      dup1\n      0x43d726d6\n      eq\n      tag_7\n      jumpi\n      dup1\n      0x70a08231\n      eq\n      tag_8\n      jumpi\n      dup1\n      0x98d5fdca\n      eq\n      tag_9\n      jumpi\n      dup1\n      0xa9059cbb\n      eq\n      tag_10\n      jumpi\n      dup1\n      0xe4849b32\n      eq\n      tag_11\n      jumpi\n      jump(tag_2)\n    tag_12:\n      dup1\n      0x15070401\n      eq\n      tag_3\n      jumpi\n      dup1\n      0x17d7de7c\n      eq\n      tag_4\n      jumpi\n      dup1\n      0x18160ddd\n      eq\n      tag_5\n      jumpi\n      dup1\n      0x40c10f19\n      eq\n      tag_6\n      jumpi\n      jump(tag_2)\n    tag_1:\n    tag_2:\n      stop\n        /* \"B226328_part2.sol\":1310:1407  function getSymbol() public view returns ( string memory )\r... */\n    tag_3:\n      callvalue\n      dup1\n      iszero\n      tag_15\n      jumpi\n      0x00\n      dup1\n      revert\n    tag_15:\n      pop\n      tag_16\n      tag_17\n      jump\t// in\n    tag_16:\n      mload(0x40)\n      tag_18\n      swap2\n      swap1\n      tag_19\n      jump\t// in\n    tag_18:\n      mload(0x40)\n      dup1\n      swap2\n      sub\n      swap1\n      return\n        /* \"B226328_part2.sol\":1214:1302  function getName()public view returns(string memory)\r... */\n    tag_4:\n      callvalue\n      dup1\n      iszero\n      tag_20\n      jumpi\n      0x00\n      dup1\n      revert\n    tag_20:\n      pop\n      tag_21\n      tag_22\n      jump\t// in\n    tag_21:\n      mload(0x40)\n      tag_23\n      swap2\n      swap1\n      tag_19\n      jump\t// in\n    tag_23:\n      mload(0x40)\n      dup1\n      swap2\n      sub\n      swap1\n      return\n        /* \"B226328_part2.sol\":1110:1206  function totalSupply() public view returns(uint256)\r... */\n    tag_5:\n      callvalue\n      dup1\n      iszero\n      tag_24\n      jumpi\n      0x00\n      dup1\n      revert\n    tag_24:\n      pop\n      tag_25\n      tag_26\n      jump\t// in\n    tag_25:\n      mload(0x40)\n      tag_27\n      swap2\n      swap1\n      tag_28\n      jump\t// in\n    tag_27:\n      mload(0x40)\n      dup1\n      swap2\n      sub\n      swap1\n      return\n        /* \"B226328_part2.sol\":2020:2339  function  mint (address to, uint256 value) public returns (bool)\r... */\n    tag_6:\n      callvalue\n      dup1\n      iszero\n      tag_29\n      jumpi\n      0x00\n      dup1\n      revert\n    tag_29:\n      pop\n      tag_30\n      0x04\n      dup1\n      calldatasize\n      sub\n      dup2\n      add\n      swap1\n      tag_31\n      swap2\n      swap1\n      tag_32\n      jump\t// in\n    tag_31:\n      tag_33\n      jump\t// in\n    tag_30:\n      mload(0x40)\n      tag_34\n      swap2\n      swap1\n      tag_35\n      jump\t// in\n    tag_34:\n      mload(0x40)\n      dup1\n      swap2\n      sub\n      swap1\n      return\n        /* \"B226328_part2.sol\":3548:3814  function close() public {\r... */\n    tag_7:\n      callvalue\n      dup1\n      iszero\n      tag_36\n      jumpi\n      0x00\n      dup1\n      revert\n    tag_36:\n      pop\n      tag_37\n      tag_38\n      jump\t// in\n    tag_37:\n      stop\n        /* \"B226328_part2.sol\":2408:2524  function balanceOf(address _account) public view returns (uint256)\r... */\n    tag_8:\n      callvalue\n      dup1\n      iszero\n      tag_39\n      jumpi\n      0x00\n      dup1\n      revert\n    tag_39:\n      pop\n      tag_40\n      0x04\n      dup1\n      calldatasize\n      sub\n      dup2\n      add\n      swap1\n      tag_41\n      swap2\n      swap1\n      tag_42\n      jump\t// in\n    tag_41:\n      tag_43\n      jump\t// in\n    tag_40:\n      mload(0x40)\n      tag_44\n      swap2\n      swap1\n      tag_28\n      jump\t// in\n    tag_44:\n      mload(0x40)\n      dup1\n      swap2\n      sub\n      swap1\n      return\n        /* \"B226328_part2.sol\":1415:1504  function getPrice() public view returns ( uint256 )\r... */\n    tag_9:\n      callvalue\n      dup1\n      iszero\n      tag_45\n      jumpi\n      0x00\n      dup1\n      revert\n    tag_45:\n      pop\n      tag_46\n      tag_47\n      jump\t// in\n    tag_46:\n      mload(0x40)\n      tag_48\n      swap2\n      swap1\n      tag_28\n      jump\t// in\n    tag_48:\n      mload(0x40)\n      dup1\n      swap2\n      sub\n      swap1\n      return\n        /* \"B226328_part2.sol\":1512:2008  function transfer(address to, uint256 value) public returns (bool) {\r... */\n    tag_10:\n      callvalue\n      dup1\n      iszero\n      tag_49\n      jumpi\n      0x00\n      dup1\n      revert\n    tag_49:\n      pop\n      tag_50\n      0x04\n      dup1\n      calldatasize\n      sub\n      dup2\n      add\n      swap1\n      tag_51\n      swap2\n      swap1\n      tag_32\n      jump\t// in\n    tag_51:\n      tag_52\n      jump\t// in\n    tag_50:\n      mload(0x40)\n      tag_53\n      swap2\n      swap1\n      tag_35\n      jump\t// in\n    tag_53:\n      mload(0x40)\n      dup1\n      swap2\n      sub\n      swap1\n      return\n        /* \"B226328_part2.sol\":2530:3540  function sell(uint256 value) public payable returns (bool)\r... */\n    tag_11:\n      tag_54\n      0x04\n      dup1\n      calldatasize\n      sub\n      dup2\n      add\n      swap1\n      tag_55\n      swap2\n      swap1\n      tag_56\n      jump\t// in\n    tag_55:\n      tag_57\n      jump\t// in\n    tag_54:\n      mload(0x40)\n      tag_58\n      swap2\n      swap1\n      tag_35\n      jump\t// in\n    tag_58:\n      mload(0x40)\n      dup1\n      swap2\n      sub\n      swap1\n      return\n        /* \"B226328_part2.sol\":1310:1407  function getSymbol() public view returns ( string memory )\r... */\n    tag_17:\n        /* \"B226328_part2.sol\":1353:1366  string memory */\n      0x60\n        /* \"B226328_part2.sol\":1392:1398  symbol */\n      0x02\n        /* \"B226328_part2.sol\":1385:1398  return symbol */\n      dup1\n      sload\n      tag_60\n      swap1\n      tag_61\n      jump\t// in\n    tag_60:\n      dup1\n      0x1f\n      add\n      0x20\n      dup1\n      swap2\n      div\n      mul\n      0x20\n      add\n      mload(0x40)\n      swap1\n      dup2\n      add\n      0x40\n      mstore\n      dup1\n      swap3\n      swap2\n      swap1\n      dup2\n      dup2\n      mstore\n      0x20\n      add\n      dup3\n      dup1\n      sload\n      tag_62\n      swap1\n      tag_61\n      jump\t// in\n    tag_62:\n      dup1\n      iszero\n      tag_63\n      jumpi\n      dup1\n      0x1f\n      lt\n      tag_64\n      jumpi\n      0x0100\n      dup1\n      dup4\n      sload\n      div\n      mul\n      dup4\n      mstore\n      swap2\n      0x20\n      add\n      swap2\n      jump(tag_63)\n    tag_64:\n      dup3\n      add\n      swap2\n      swap1\n      0x00\n      mstore\n      keccak256(0x00, 0x20)\n      swap1\n    tag_65:\n      dup2\n      sload\n      dup2\n      mstore\n      swap1\n      0x01\n      add\n      swap1\n      0x20\n      add\n      dup1\n      dup4\n      gt\n      tag_65\n      jumpi\n      dup3\n      swap1\n      sub\n      0x1f\n      and\n      dup3\n      add\n      swap2\n    tag_63:\n      pop\n      pop\n      pop\n      pop\n      pop\n      swap1\n      pop\n        /* \"B226328_part2.sol\":1310:1407  function getSymbol() public view returns ( string memory )\r... */\n      swap1\n      jump\t// out\n        /* \"B226328_part2.sol\":1214:1302  function getName()public view returns(string memory)\r... */\n    tag_22:\n        /* \"B226328_part2.sol\":1252:1265  string memory */\n      0x60\n        /* \"B226328_part2.sol\":1290:1294  name */\n      0x01\n        /* \"B226328_part2.sol\":1283:1294  return name */\n      dup1\n      sload\n      tag_67\n      swap1\n      tag_61\n      jump\t// in\n    tag_67:\n      dup1\n      0x1f\n      add\n      0x20\n      dup1\n      swap2\n      div\n      mul\n      0x20\n      add\n      mload(0x40)\n      swap1\n      dup2\n      add\n      0x40\n      mstore\n      dup1\n      swap3\n      swap2\n      swap1\n      dup2\n      dup2\n      mstore\n      0x20\n      add\n      dup3\n      dup1\n      sload\n      tag_68\n      swap1\n      tag_61\n      jump\t// in\n    tag_68:\n      dup1\n      iszero\n      tag_69\n      jumpi\n      dup1\n      0x1f\n      lt\n      tag_70\n      jumpi\n      0x0100\n      dup1\n      dup4\n      sload\n      div\n      mul\n      dup4\n      mstore\n      swap2\n      0x20\n      add\n      swap2\n      jump(tag_69)\n    tag_70:\n      dup3\n      add\n      swap2\n      swap1\n      0x00\n      mstore\n      keccak256(0x00, 0x20)\n      swap1\n    tag_71:\n      dup2\n      sload\n      dup2\n      mstore\n      swap1\n      0x01\n      add\n      swap1\n      0x20\n      add\n      dup1\n      dup4\n      gt\n      tag_71\n      jumpi\n      dup3\n      swap1\n      sub\n      0x1f\n      and\n      dup3\n      add\n      swap2\n    tag_69:\n      pop\n      pop\n      pop\n      pop\n      pop\n      swap1\n      pop\n        /* \"B226328_part2.sol\":1214:1302  function getName()public view returns(string memory)\r... */\n      swap1\n      jump\t// out\n        /* \"B226328_part2.sol\":1110:1206  function totalSupply() public view returns(uint256)\r... */\n    tag_26:\n        /* \"B226328_part2.sol\":1153:1160  uint256 */\n      0x00\n        /* \"B226328_part2.sol\":1187:1198  totalsupply */\n      sload(0x04)\n        /* \"B226328_part2.sol\":1180:1198  return totalsupply */\n      swap1\n      pop\n        /* \"B226328_part2.sol\":1110:1206  function totalSupply() public view returns(uint256)\r... */\n      swap1\n      jump\t// out\n        /* \"B226328_part2.sol\":2020:2339  function  mint (address to, uint256 value) public returns (bool)\r... */\n    tag_33:\n        /* \"B226328_part2.sol\":2079:2083  bool */\n      0x00\n        /* \"B226328_part2.sol\":2130:2134  true */\n      0x01\n        /* \"B226328_part2.sol\":2109:2134  roles[msg.sender] == true */\n      iszero\n      iszero\n        /* \"B226328_part2.sol\":2109:2114  roles */\n      0x06\n        /* \"B226328_part2.sol\":2109:2126  roles[msg.sender] */\n      0x00\n        /* \"B226328_part2.sol\":2115:2125  msg.sender */\n      caller\n        /* \"B226328_part2.sol\":2109:2126  roles[msg.sender] */\n      0xffffffffffffffffffffffffffffffffffffffff\n      and\n      0xffffffffffffffffffffffffffffffffffffffff\n      and\n      dup2\n      mstore\n      0x20\n      add\n      swap1\n      dup2\n      mstore\n      0x20\n      add\n      0x00\n      keccak256\n      0x00\n      swap1\n      sload\n      swap1\n      0x0100\n      exp\n      swap1\n      div\n      0xff\n      and\n        /* \"B226328_part2.sol\":2109:2134  roles[msg.sender] == true */\n      iszero\n      iszero\n      eq\n        /* \"B226328_part2.sol\":2101:2173  require(roles[msg.sender] == true, \"Only the owner can mint new tokens\") */\n      tag_74\n      jumpi\n      mload(0x40)\n      0x08c379a000000000000000000000000000000000000000000000000000000000\n      dup2\n      mstore\n      0x04\n      add\n      tag_75\n      swap1\n      tag_76\n      jump\t// in\n    tag_75:\n      mload(0x40)\n      dup1\n      swap2\n      sub\n      swap1\n      revert\n    tag_74:\n        /* \"B226328_part2.sol\":2198:2220  totalsupply.add(value) */\n      tag_77\n        /* \"B226328_part2.sol\":2214:2219  value */\n      dup3\n        /* \"B226328_part2.sol\":2198:2209  totalsupply */\n      sload(0x04)\n        /* \"B226328_part2.sol\":2198:2213  totalsupply.add */\n      tag_78\n      swap1\n        /* \"B226328_part2.sol\":2198:2220  totalsupply.add(value) */\n      swap2\n      swap1\n      0xffffffff\n      and\n      jump\t// in\n    tag_77:\n        /* \"B226328_part2.sol\":2184:2195  totalsupply */\n      0x04\n        /* \"B226328_part2.sol\":2184:2220  totalsupply = totalsupply.add(value) */\n      dup2\n      swap1\n      sstore\n      pop\n        /* \"B226328_part2.sol\":2247:2274  (balances[ to ]).add(value) */\n      tag_79\n        /* \"B226328_part2.sol\":2268:2273  value */\n      dup3\n        /* \"B226328_part2.sol\":2248:2256  balances */\n      0x05\n        /* \"B226328_part2.sol\":2248:2262  balances[ to ] */\n      0x00\n        /* \"B226328_part2.sol\":2258:2260  to */\n      dup7\n        /* \"B226328_part2.sol\":2248:2262  balances[ to ] */\n      0xffffffffffffffffffffffffffffffffffffffff\n      and\n      0xffffffffffffffffffffffffffffffffffffffff\n      and\n      dup2\n      mstore\n      0x20\n      add\n      swap1\n      dup2\n      mstore\n      0x20\n      add\n      0x00\n      keccak256\n      sload\n        /* \"B226328_part2.sol\":2247:2267  (balances[ to ]).add */\n      tag_78\n      swap1\n        /* \"B226328_part2.sol\":2247:2274  (balances[ to ]).add(value) */\n      swap2\n      swap1\n      0xffffffff\n      and\n      jump\t// in\n    tag_79:\n        /* \"B226328_part2.sol\":2231:2239  balances */\n      0x05\n        /* \"B226328_part2.sol\":2231:2243  balances[to] */\n      0x00\n        /* \"B226328_part2.sol\":2240:2242  to */\n      dup6\n        /* \"B226328_part2.sol\":2231:2243  balances[to] */\n      0xffffffffffffffffffffffffffffffffffffffff\n      and\n      0xffffffffffffffffffffffffffffffffffffffff\n      and\n      dup2\n      mstore\n      0x20\n      add\n      swap1\n      dup2\n      mstore\n      0x20\n      add\n      0x00\n      keccak256\n        /* \"B226328_part2.sol\":2231:2274  balances[to] =  (balances[ to ]).add(value) */\n      dup2\n      swap1\n      sstore\n      pop\n        /* \"B226328_part2.sol\":2297:2299  to */\n      dup3\n        /* \"B226328_part2.sol\":2290:2308  Mint ( to , value) */\n      0xffffffffffffffffffffffffffffffffffffffff\n      and\n      0x0f6798a560793a54c3bcfe86a93cde1e73087d944c0ea20544137d4121396885\n        /* \"B226328_part2.sol\":2302:2307  value */\n      dup4\n        /* \"B226328_part2.sol\":2290:2308  Mint ( to , value) */\n      mload(0x40)\n      tag_80\n      swap2\n      swap1\n      tag_28\n      jump\t// in\n    tag_80:\n      mload(0x40)\n      dup1\n      swap2\n      sub\n      swap1\n      log2\n        /* \"B226328_part2.sol\":2327:2331  true */\n      0x01\n        /* \"B226328_part2.sol\":2320:2331  return true */\n      swap1\n      pop\n        /* \"B226328_part2.sol\":2020:2339  function  mint (address to, uint256 value) public returns (bool)\r... */\n      swap3\n      swap2\n      pop\n      pop\n      jump\t// out\n        /* \"B226328_part2.sol\":3548:3814  function close() public {\r... */\n    tag_38:\n        /* \"B226328_part2.sol\":3660:3664  true */\n      0x01\n        /* \"B226328_part2.sol\":3639:3664  roles[msg.sender] == true */\n      iszero\n      iszero\n        /* \"B226328_part2.sol\":3639:3644  roles */\n      0x06\n        /* \"B226328_part2.sol\":3639:3656  roles[msg.sender] */\n      0x00\n        /* \"B226328_part2.sol\":3645:3655  msg.sender */\n      caller\n        /* \"B226328_part2.sol\":3639:3656  roles[msg.sender] */\n      0xffffffffffffffffffffffffffffffffffffffff\n      and\n      0xffffffffffffffffffffffffffffffffffffffff\n      and\n      dup2\n      mstore\n      0x20\n      add\n      swap1\n      dup2\n      mstore\n      0x20\n      add\n      0x00\n      keccak256\n      0x00\n      swap1\n      sload\n      swap1\n      0x0100\n      exp\n      swap1\n      div\n      0xff\n      and\n        /* \"B226328_part2.sol\":3639:3664  roles[msg.sender] == true */\n      iszero\n      iszero\n      eq\n        /* \"B226328_part2.sol\":3631:3708  require(roles[msg.sender] == true, \"Only the owner can destroy the contract\") */\n      tag_82\n      jumpi\n      mload(0x40)\n      0x08c379a000000000000000000000000000000000000000000000000000000000\n      dup2\n      mstore\n      0x04\n      add\n      tag_83\n      swap1\n      tag_84\n      jump\t// in\n    tag_83:\n      mload(0x40)\n      dup1\n      swap2\n      sub\n      swap1\n      revert\n    tag_82:\n        /* \"B226328_part2.sol\":3800:3805  owner */\n      0x00\n      dup1\n      sload\n      swap1\n      0x0100\n      exp\n      swap1\n      div\n      0xffffffffffffffffffffffffffffffffffffffff\n      and\n        /* \"B226328_part2.sol\":3787:3806  selfdestruct(owner) */\n      0xffffffffffffffffffffffffffffffffffffffff\n      and\n      selfdestruct\n        /* \"B226328_part2.sol\":2408:2524  function balanceOf(address _account) public view returns (uint256)\r... */\n    tag_43:\n        /* \"B226328_part2.sol\":2466:2473  uint256 */\n      0x00\n        /* \"B226328_part2.sol\":2498:2506  balances */\n      0x05\n        /* \"B226328_part2.sol\":2498:2516  balances[_account] */\n      0x00\n        /* \"B226328_part2.sol\":2507:2515  _account */\n      dup4\n        /* \"B226328_part2.sol\":2498:2516  balances[_account] */\n      0xffffffffffffffffffffffffffffffffffffffff\n      and\n      0xffffffffffffffffffffffffffffffffffffffff\n      and\n      dup2\n      mstore\n      0x20\n      add\n      swap1\n      dup2\n      mstore\n      0x20\n      add\n      0x00\n      keccak256\n      sload\n        /* \"B226328_part2.sol\":2491:2516  return balances[_account] */\n      swap1\n      pop\n        /* \"B226328_part2.sol\":2408:2524  function balanceOf(address _account) public view returns (uint256)\r... */\n      swap2\n      swap1\n      pop\n      jump\t// out\n        /* \"B226328_part2.sol\":1415:1504  function getPrice() public view returns ( uint256 )\r... */\n    tag_47:\n        /* \"B226328_part2.sol\":1457:1464  uint256 */\n      0x00\n        /* \"B226328_part2.sol\":1490:1495  price */\n      sload(0x03)\n        /* \"B226328_part2.sol\":1483:1495  return price */\n      swap1\n      pop\n        /* \"B226328_part2.sol\":1415:1504  function getPrice() public view returns ( uint256 )\r... */\n      swap1\n      jump\t// out\n        /* \"B226328_part2.sol\":1512:2008  function transfer(address to, uint256 value) public returns (bool) {\r... */\n    tag_52:\n        /* \"B226328_part2.sol\":1573:1577  bool */\n      0x00\n        /* \"B226328_part2.sol\":1682:1683  0 */\n      dup1\n        /* \"B226328_part2.sol\":1647:1678  balances[msg.sender].sub(value) */\n      tag_88\n        /* \"B226328_part2.sol\":1672:1677  value */\n      dup4\n        /* \"B226328_part2.sol\":1647:1655  balances */\n      0x05\n        /* \"B226328_part2.sol\":1647:1667  balances[msg.sender] */\n      0x00\n        /* \"B226328_part2.sol\":1656:1666  msg.sender */\n      caller\n        /* \"B226328_part2.sol\":1647:1667  balances[msg.sender] */\n      0xffffffffffffffffffffffffffffffffffffffff\n      and\n      0xffffffffffffffffffffffffffffffffffffffff\n      and\n      dup2\n      mstore\n      0x20\n      add\n      swap1\n      dup2\n      mstore\n      0x20\n      add\n      0x00\n      keccak256\n      sload\n        /* \"B226328_part2.sol\":1647:1671  balances[msg.sender].sub */\n      tag_89\n      swap1\n        /* \"B226328_part2.sol\":1647:1678  balances[msg.sender].sub(value) */\n      swap2\n      swap1\n      0xffffffff\n      and\n      jump\t// in\n    tag_88:\n        /* \"B226328_part2.sol\":1647:1683  balances[msg.sender].sub(value) >= 0 */\n      lt\n      iszero\n        /* \"B226328_part2.sol\":1639:1722  require(balances[msg.sender].sub(value) >= 0, \"You do not have sufficient balance\") */\n      tag_90\n      jumpi\n      mload(0x40)\n      0x08c379a000000000000000000000000000000000000000000000000000000000\n      dup2\n      mstore\n      0x04\n      add\n      tag_91\n      swap1\n      tag_92\n      jump\t// in\n    tag_91:\n      mload(0x40)\n      dup1\n      swap2\n      sub\n      swap1\n      revert\n    tag_90:\n        /* \"B226328_part2.sol\":1806:1837  balances[msg.sender].sub(value) */\n      tag_93\n        /* \"B226328_part2.sol\":1831:1836  value */\n      dup3\n        /* \"B226328_part2.sol\":1806:1814  balances */\n      0x05\n        /* \"B226328_part2.sol\":1806:1826  balances[msg.sender] */\n      0x00\n        /* \"B226328_part2.sol\":1815:1825  msg.sender */\n      caller\n        /* \"B226328_part2.sol\":1806:1826  balances[msg.sender] */\n      0xffffffffffffffffffffffffffffffffffffffff\n      and\n      0xffffffffffffffffffffffffffffffffffffffff\n      and\n      dup2\n      mstore\n      0x20\n      add\n      swap1\n      dup2\n      mstore\n      0x20\n      add\n      0x00\n      keccak256\n      sload\n        /* \"B226328_part2.sol\":1806:1830  balances[msg.sender].sub */\n      tag_89\n      swap1\n        /* \"B226328_part2.sol\":1806:1837  balances[msg.sender].sub(value) */\n      swap2\n      swap1\n      0xffffffff\n      and\n      jump\t// in\n    tag_93:\n        /* \"B226328_part2.sol\":1783:1791  balances */\n      0x05\n        /* \"B226328_part2.sol\":1783:1803  balances[msg.sender] */\n      0x00\n        /* \"B226328_part2.sol\":1792:1802  msg.sender */\n      caller\n        /* \"B226328_part2.sol\":1783:1803  balances[msg.sender] */\n      0xffffffffffffffffffffffffffffffffffffffff\n      and\n      0xffffffffffffffffffffffffffffffffffffffff\n      and\n      dup2\n      mstore\n      0x20\n      add\n      swap1\n      dup2\n      mstore\n      0x20\n      add\n      0x00\n      keccak256\n        /* \"B226328_part2.sol\":1783:1837  balances[msg.sender] = balances[msg.sender].sub(value) */\n      dup2\n      swap1\n      sstore\n      pop\n        /* \"B226328_part2.sol\":1863:1886  balances[to].add(value) */\n      tag_94\n        /* \"B226328_part2.sol\":1880:1885  value */\n      dup3\n        /* \"B226328_part2.sol\":1863:1871  balances */\n      0x05\n        /* \"B226328_part2.sol\":1863:1875  balances[to] */\n      0x00\n        /* \"B226328_part2.sol\":1872:1874  to */\n      dup7\n        /* \"B226328_part2.sol\":1863:1875  balances[to] */\n      0xffffffffffffffffffffffffffffffffffffffff\n      and\n      0xffffffffffffffffffffffffffffffffffffffff\n      and\n      dup2\n      mstore\n      0x20\n      add\n      swap1\n      dup2\n      mstore\n      0x20\n      add\n      0x00\n      keccak256\n      sload\n        /* \"B226328_part2.sol\":1863:1879  balances[to].add */\n      tag_78\n      swap1\n        /* \"B226328_part2.sol\":1863:1886  balances[to].add(value) */\n      swap2\n      swap1\n      0xffffffff\n      and\n      jump\t// in\n    tag_94:\n        /* \"B226328_part2.sol\":1848:1856  balances */\n      0x05\n        /* \"B226328_part2.sol\":1848:1860  balances[to] */\n      0x00\n        /* \"B226328_part2.sol\":1857:1859  to */\n      dup6\n        /* \"B226328_part2.sol\":1848:1860  balances[to] */\n      0xffffffffffffffffffffffffffffffffffffffff\n      and\n      0xffffffffffffffffffffffffffffffffffffffff\n      and\n      dup2\n      mstore\n      0x20\n      add\n      swap1\n      dup2\n      mstore\n      0x20\n      add\n      0x00\n      keccak256\n        /* \"B226328_part2.sol\":1848:1886  balances[to] = balances[to].add(value) */\n      dup2\n      swap1\n      sstore\n      pop\n        /* \"B226328_part2.sol\":1967:1969  to */\n      dup3\n        /* \"B226328_part2.sol\":1946:1977  Transfer(msg.sender, to, value) */\n      0xffffffffffffffffffffffffffffffffffffffff\n      and\n        /* \"B226328_part2.sol\":1955:1965  msg.sender */\n      caller\n        /* \"B226328_part2.sol\":1946:1977  Transfer(msg.sender, to, value) */\n      0xffffffffffffffffffffffffffffffffffffffff\n      and\n      0xddf252ad1be2c89b69c2b068fc378daa952ba7f163c4a11628f55a4df523b3ef\n        /* \"B226328_part2.sol\":1971:1976  value */\n      dup5\n        /* \"B226328_part2.sol\":1946:1977  Transfer(msg.sender, to, value) */\n      mload(0x40)\n      tag_95\n      swap2\n      swap1\n      tag_28\n      jump\t// in\n    tag_95:\n      mload(0x40)\n      dup1\n      swap2\n      sub\n      swap1\n      log3\n        /* \"B226328_part2.sol\":1995:1999  true */\n      0x01\n        /* \"B226328_part2.sol\":1988:1999  return true */\n      swap1\n      pop\n        /* \"B226328_part2.sol\":1512:2008  function transfer(address to, uint256 value) public returns (bool) {\r... */\n      swap3\n      swap2\n      pop\n      pop\n      jump\t// out\n        /* \"B226328_part2.sol\":2530:3540  function sell(uint256 value) public payable returns (bool)\r... */\n    tag_57:\n        /* \"B226328_part2.sol\":2583:2587  bool */\n      0x00\n        /* \"B226328_part2.sol\":2646:2647  0 */\n      dup1\n        /* \"B226328_part2.sol\":2613:2644  balances[msg.sender].sub(value) */\n      tag_97\n        /* \"B226328_part2.sol\":2638:2643  value */\n      dup4\n        /* \"B226328_part2.sol\":2613:2621  balances */\n      0x05\n        /* \"B226328_part2.sol\":2613:2633  balances[msg.sender] */\n      0x00\n        /* \"B226328_part2.sol\":2622:2632  msg.sender */\n      caller\n        /* \"B226328_part2.sol\":2613:2633  balances[msg.sender] */\n      0xffffffffffffffffffffffffffffffffffffffff\n      and\n      0xffffffffffffffffffffffffffffffffffffffff\n      and\n      dup2\n      mstore\n      0x20\n      add\n      swap1\n      dup2\n      mstore\n      0x20\n      add\n      0x00\n      keccak256\n      sload\n        /* \"B226328_part2.sol\":2613:2637  balances[msg.sender].sub */\n      tag_89\n      swap1\n        /* \"B226328_part2.sol\":2613:2644  balances[msg.sender].sub(value) */\n      swap2\n      swap1\n      0xffffffff\n      and\n      jump\t// in\n    tag_97:\n        /* \"B226328_part2.sol\":2613:2647  balances[msg.sender].sub(value)>=0 */\n      lt\n      iszero\n        /* \"B226328_part2.sol\":2605:2672  require(balances[msg.sender].sub(value)>=0, \"Insufficient balance\") */\n      tag_98\n      jumpi\n      mload(0x40)\n      0x08c379a000000000000000000000000000000000000000000000000000000000\n      dup2\n      mstore\n      0x04\n      add\n      tag_99\n      swap1\n      tag_100\n      jump\t// in\n    tag_99:\n      mload(0x40)\n      dup1\n      swap2\n      sub\n      swap1\n      revert\n    tag_98:\n        /* \"B226328_part2.sol\":2753:2770  uint256 weiAmount */\n      0x00\n        /* \"B226328_part2.sol\":2781:2784  600 */\n      0x0258\n        /* \"B226328_part2.sol\":2773:2778  value */\n      dup4\n        /* \"B226328_part2.sol\":2773:2784  value * 600 */\n      tag_101\n      swap2\n      swap1\n      tag_102\n      jump\t// in\n    tag_101:\n        /* \"B226328_part2.sol\":2753:2784  uint256 weiAmount = value * 600 */\n      swap1\n      pop\n        /* \"B226328_part2.sol\":3072:3073  0 */\n      0x00\n        /* \"B226328_part2.sol\":3034:3070  address(this).balance.sub(weiAmount) */\n      tag_103\n        /* \"B226328_part2.sol\":3060:3069  weiAmount */\n      dup3\n        /* \"B226328_part2.sol\":3034:3055  address(this).balance */\n      selfbalance\n        /* \"B226328_part2.sol\":3034:3059  address(this).balance.sub */\n      tag_89\n      swap1\n        /* \"B226328_part2.sol\":3034:3070  address(this).balance.sub(weiAmount) */\n      swap2\n      swap1\n      0xffffffff\n      and\n      jump\t// in\n    tag_103:\n        /* \"B226328_part2.sol\":3034:3073  address(this).balance.sub(weiAmount)>=0 */\n      lt\n      iszero\n        /* \"B226328_part2.sol\":3026:3110  require(address(this).balance.sub(weiAmount)>=0, \"Contract balance is insufficient\") */\n      tag_104\n      jumpi\n      mload(0x40)\n      0x08c379a000000000000000000000000000000000000000000000000000000000\n      dup2\n      mstore\n      0x04\n      add\n      tag_105\n      swap1\n      tag_106\n      jump\t// in\n    tag_105:\n      mload(0x40)\n      dup1\n      swap2\n      sub\n      swap1\n      revert\n    tag_104:\n        /* \"B226328_part2.sol\":3123:3132  bool succ */\n      0x00\n        /* \"B226328_part2.sol\":3135:3144  customLib */\n      linkerSymbol(\"97e65d3ecb950a85cbb8a7b3a778484171d931f41ffa125c13e0cd3fea5f016e\")\n        /* \"B226328_part2.sol\":3135:3155  customLib.customSend */\n      0xc0ba8f42\n        /* \"B226328_part2.sol\":3156:3165  weiAmount */\n      dup4\n        /* \"B226328_part2.sol\":3167:3177  msg.sender */\n      caller\n        /* \"B226328_part2.sol\":3135:3178  customLib.customSend(weiAmount, msg.sender) */\n      mload(0x40)\n      dup4\n      0xffffffff\n      and\n      0xe0\n      shl\n      dup2\n      mstore\n      0x04\n      add\n      tag_107\n      swap3\n      swap2\n      swap1\n      tag_108\n      jump\t// in\n    tag_107:\n      0x20\n      mload(0x40)\n      dup1\n      dup4\n      sub\n      dup2\n      dup7\n      dup1\n      extcodesize\n      iszero\n      dup1\n      iszero\n      tag_109\n      jumpi\n      0x00\n      dup1\n      revert\n    tag_109:\n      pop\n      gas\n      delegatecall\n      iszero\n      dup1\n      iszero\n      tag_111\n      jumpi\n      returndatasize\n      0x00\n      dup1\n      returndatacopy\n      revert(0x00, returndatasize)\n    tag_111:\n      pop\n      pop\n      pop\n      pop\n      mload(0x40)\n      returndatasize\n      not(0x1f)\n      0x1f\n      dup3\n      add\n      and\n      dup3\n      add\n      dup1\n      0x40\n      mstore\n      pop\n      dup2\n      add\n      swap1\n      tag_112\n      swap2\n      swap1\n      tag_113\n      jump\t// in\n    tag_112:\n        /* \"B226328_part2.sol\":3123:3178  bool succ = customLib.customSend(weiAmount, msg.sender) */\n      swap1\n      pop\n        /* \"B226328_part2.sol\":3197:3201  succ */\n      dup1\n        /* \"B226328_part2.sol\":3189:3222  require(succ,\"Unsuccessful Send\") */\n      tag_114\n      jumpi\n      mload(0x40)\n      0x08c379a000000000000000000000000000000000000000000000000000000000\n      dup2\n      mstore\n      0x04\n      add\n      tag_115\n      swap1\n      tag_116\n      jump\t// in\n    tag_115:\n      mload(0x40)\n      dup1\n      swap2\n      sub\n      swap1\n      revert\n    tag_114:\n        /* \"B226328_part2.sol\":3256:3287  balances[msg.sender].sub(value) */\n      tag_117\n        /* \"B226328_part2.sol\":3281:3286  value */\n      dup5\n        /* \"B226328_part2.sol\":3256:3264  balances */\n      0x05\n        /* \"B226328_part2.sol\":3256:3276  balances[msg.sender] */\n      0x00\n        /* \"B226328_part2.sol\":3265:3275  msg.sender */\n      caller\n        /* \"B226328_part2.sol\":3256:3276  balances[msg.sender] */\n      0xffffffffffffffffffffffffffffffffffffffff\n      and\n      0xffffffffffffffffffffffffffffffffffffffff\n      and\n      dup2\n      mstore\n      0x20\n      add\n      swap1\n      dup2\n      mstore\n      0x20\n      add\n      0x00\n      keccak256\n      sload\n        /* \"B226328_part2.sol\":3256:3280  balances[msg.sender].sub */\n      tag_89\n      swap1\n        /* \"B226328_part2.sol\":3256:3287  balances[msg.sender].sub(value) */\n      swap2\n      swap1\n      0xffffffff\n      and\n      jump\t// in\n    tag_117:\n        /* \"B226328_part2.sol\":3233:3241  balances */\n      0x05\n        /* \"B226328_part2.sol\":3233:3253  balances[msg.sender] */\n      0x00\n        /* \"B226328_part2.sol\":3242:3252  msg.sender */\n      caller\n        /* \"B226328_part2.sol\":3233:3253  balances[msg.sender] */\n      0xffffffffffffffffffffffffffffffffffffffff\n      and\n      0xffffffffffffffffffffffffffffffffffffffff\n      and\n      dup2\n      mstore\n      0x20\n      add\n      swap1\n      dup2\n      mstore\n      0x20\n      add\n      0x00\n      keccak256\n        /* \"B226328_part2.sol\":3233:3287  balances[msg.sender] = balances[msg.sender].sub(value) */\n      dup2\n      swap1\n      sstore\n      pop\n        /* \"B226328_part2.sol\":3360:3382  totalsupply.sub(value) */\n      tag_118\n        /* \"B226328_part2.sol\":3376:3381  value */\n      dup5\n        /* \"B226328_part2.sol\":3360:3371  totalsupply */\n      sload(0x04)\n        /* \"B226328_part2.sol\":3360:3375  totalsupply.sub */\n      tag_89\n      swap1\n        /* \"B226328_part2.sol\":3360:3382  totalsupply.sub(value) */\n      swap2\n      swap1\n      0xffffffff\n      and\n      jump\t// in\n    tag_118:\n        /* \"B226328_part2.sol\":3346:3357  totalsupply */\n      0x04\n        /* \"B226328_part2.sol\":3346:3382  totalsupply = totalsupply.sub(value) */\n      dup2\n      swap1\n      sstore\n      pop\n        /* \"B226328_part2.sol\":3463:3473  msg.sender */\n      caller\n        /* \"B226328_part2.sol\":3458:3481  Sell(msg.sender, value) */\n      0xffffffffffffffffffffffffffffffffffffffff\n      and\n      0x5e5e995ce3133561afceaa51a9a154d5db228cd7525d34df5185582c18d3df09\n        /* \"B226328_part2.sol\":3475:3480  value */\n      dup6\n        /* \"B226328_part2.sol\":3458:3481  Sell(msg.sender, value) */\n      mload(0x40)\n      tag_119\n      swap2\n      swap1\n      tag_28\n      jump\t// in\n    tag_119:\n      mload(0x40)\n      dup1\n      swap2\n      sub\n      swap1\n      log2\n        /* \"B226328_part2.sol\":3528:3532  true */\n      0x01\n        /* \"B226328_part2.sol\":3521:3532  return true */\n      swap3\n      pop\n      pop\n      pop\n        /* \"B226328_part2.sol\":2530:3540  function sell(uint256 value) public payable returns (bool)\r... */\n      swap2\n      swap1\n      pop\n      jump\t// out\n        /* \"@openzeppelin/contracts/utils/math/SafeMath.sol\":2755:2851  function add(uint256 a, uint256 b) internal pure returns (uint256) {... */\n    tag_78:\n        /* \"@openzeppelin/contracts/utils/math/SafeMath.sol\":2813:2820  uint256 */\n      0x00\n        /* \"@openzeppelin/contracts/utils/math/SafeMath.sol\":2843:2844  b */\n      dup2\n        /* \"@openzeppelin/contracts/utils/math/SafeMath.sol\":2839:2840  a */\n      dup4\n        /* \"@openzeppelin/contracts/utils/math/SafeMath.sol\":2839:2844  a + b */\n      tag_121\n      swap2\n      swap1\n      tag_122\n      jump\t// in\n    tag_121:\n        /* \"@openzeppelin/contracts/utils/math/SafeMath.sol\":2832:2844  return a + b */\n      swap1\n      pop\n        /* \"@openzeppelin/contracts/utils/math/SafeMath.sol\":2755:2851  function add(uint256 a, uint256 b) internal pure returns (uint256) {... */\n      swap3\n      swap2\n      pop\n      pop\n      jump\t// out\n        /* \"@openzeppelin/contracts/utils/math/SafeMath.sol\":3122:3218  function sub(uint256 a, uint256 b) internal pure returns (uint256) {... */\n    tag_89:\n        /* \"@openzeppelin/contracts/utils/math/SafeMath.sol\":3180:3187  uint256 */\n      0x00\n        /* \"@openzeppelin/contracts/utils/math/SafeMath.sol\":3210:3211  b */\n      dup2\n        /* \"@openzeppelin/contracts/utils/math/SafeMath.sol\":3206:3207  a */\n      dup4\n        /* \"@openzeppelin/contracts/utils/math/SafeMath.sol\":3206:3211  a - b */\n      tag_124\n      swap2\n      swap1\n      tag_125\n      jump\t// in\n    tag_124:\n        /* \"@openzeppelin/contracts/utils/math/SafeMath.sol\":3199:3211  return a - b */\n      swap1\n      pop\n        /* \"@openzeppelin/contracts/utils/math/SafeMath.sol\":3122:3218  function sub(uint256 a, uint256 b) internal pure returns (uint256) {... */\n      swap3\n      swap2\n      pop\n      pop\n      jump\t// out\n        /* \"#utility.yul\":7:146   */\n    tag_127:\n        /* \"#utility.yul\":53:58   */\n      0x00\n        /* \"#utility.yul\":91:97   */\n      dup2\n        /* \"#utility.yul\":78:98   */\n      calldataload\n        /* \"#utility.yul\":69:98   */\n      swap1\n      pop\n        /* \"#utility.yul\":107:140   */\n      tag_129\n        /* \"#utility.yul\":134:139   */\n      dup2\n        /* \"#utility.yul\":107:140   */\n      tag_130\n      jump\t// in\n    tag_129:\n        /* \"#utility.yul\":7:146   */\n      swap3\n      swap2\n      pop\n      pop\n      jump\t// out\n        /* \"#utility.yul\":152:289   */\n    tag_131:\n        /* \"#utility.yul\":206:211   */\n      0x00\n        /* \"#utility.yul\":237:243   */\n      dup2\n        /* \"#utility.yul\":231:244   */\n      mload\n        /* \"#utility.yul\":222:244   */\n      swap1\n      pop\n        /* \"#utility.yul\":253:283   */\n      tag_133\n        /* \"#utility.yul\":277:282   */\n      dup2\n        /* \"#utility.yul\":253:283   */\n      tag_134\n      jump\t// in\n    tag_133:\n        /* \"#utility.yul\":152:289   */\n      swap3\n      swap2\n      pop\n      pop\n      jump\t// out\n        /* \"#utility.yul\":295:434   */\n    tag_135:\n        /* \"#utility.yul\":341:346   */\n      0x00\n        /* \"#utility.yul\":379:385   */\n      dup2\n        /* \"#utility.yul\":366:386   */\n      calldataload\n        /* \"#utility.yul\":357:386   */\n      swap1\n      pop\n        /* \"#utility.yul\":395:428   */\n      tag_137\n        /* \"#utility.yul\":422:427   */\n      dup2\n        /* \"#utility.yul\":395:428   */\n      tag_138\n      jump\t// in\n    tag_137:\n        /* \"#utility.yul\":295:434   */\n      swap3\n      swap2\n      pop\n      pop\n      jump\t// out\n        /* \"#utility.yul\":440:769   */\n    tag_42:\n        /* \"#utility.yul\":499:505   */\n      0x00\n        /* \"#utility.yul\":548:550   */\n      0x20\n        /* \"#utility.yul\":536:545   */\n      dup3\n        /* \"#utility.yul\":527:534   */\n      dup5\n        /* \"#utility.yul\":523:546   */\n      sub\n        /* \"#utility.yul\":519:551   */\n      slt\n        /* \"#utility.yul\":516:635   */\n      iszero\n      tag_140\n      jumpi\n        /* \"#utility.yul\":554:633   */\n      tag_141\n      tag_142\n      jump\t// in\n    tag_141:\n        /* \"#utility.yul\":516:635   */\n    tag_140:\n        /* \"#utility.yul\":674:675   */\n      0x00\n        /* \"#utility.yul\":699:752   */\n      tag_143\n        /* \"#utility.yul\":744:751   */\n      dup5\n        /* \"#utility.yul\":735:741   */\n      dup3\n        /* \"#utility.yul\":724:733   */\n      dup6\n        /* \"#utility.yul\":720:742   */\n      add\n        /* \"#utility.yul\":699:752   */\n      tag_127\n      jump\t// in\n    tag_143:\n        /* \"#utility.yul\":689:752   */\n      swap2\n      pop\n        /* \"#utility.yul\":645:762   */\n      pop\n        /* \"#utility.yul\":440:769   */\n      swap3\n      swap2\n      pop\n      pop\n      jump\t// out\n        /* \"#utility.yul\":775:1249   */\n    tag_32:\n        /* \"#utility.yul\":843:849   */\n      0x00\n        /* \"#utility.yul\":851:857   */\n      dup1\n        /* \"#utility.yul\":900:902   */\n      0x40\n        /* \"#utility.yul\":888:897   */\n      dup4\n        /* \"#utility.yul\":879:886   */\n      dup6\n        /* \"#utility.yul\":875:898   */\n      sub\n        /* \"#utility.yul\":871:903   */\n      slt\n        /* \"#utility.yul\":868:987   */\n      iszero\n      tag_145\n      jumpi\n        /* \"#utility.yul\":906:985   */\n      tag_146\n      tag_142\n      jump\t// in\n    tag_146:\n        /* \"#utility.yul\":868:987   */\n    tag_145:\n        /* \"#utility.yul\":1026:1027   */\n      0x00\n        /* \"#utility.yul\":1051:1104   */\n      tag_147\n        /* \"#utility.yul\":1096:1103   */\n      dup6\n        /* \"#utility.yul\":1087:1093   */\n      dup3\n        /* \"#utility.yul\":1076:1085   */\n      dup7\n        /* \"#utility.yul\":1072:1094   */\n      add\n        /* \"#utility.yul\":1051:1104   */\n      tag_127\n      jump\t// in\n    tag_147:\n        /* \"#utility.yul\":1041:1104   */\n      swap3\n      pop\n        /* \"#utility.yul\":997:1114   */\n      pop\n        /* \"#utility.yul\":1153:1155   */\n      0x20\n        /* \"#utility.yul\":1179:1232   */\n      tag_148\n        /* \"#utility.yul\":1224:1231   */\n      dup6\n        /* \"#utility.yul\":1215:1221   */\n      dup3\n        /* \"#utility.yul\":1204:1213   */\n      dup7\n        /* \"#utility.yul\":1200:1222   */\n      add\n        /* \"#utility.yul\":1179:1232   */\n      tag_135\n      jump\t// in\n    tag_148:\n        /* \"#utility.yul\":1169:1232   */\n      swap2\n      pop\n        /* \"#utility.yul\":1124:1242   */\n      pop\n        /* \"#utility.yul\":775:1249   */\n      swap3\n      pop\n      swap3\n      swap1\n      pop\n      jump\t// out\n        /* \"#utility.yul\":1255:1600   */\n    tag_113:\n        /* \"#utility.yul\":1322:1328   */\n      0x00\n        /* \"#utility.yul\":1371:1373   */\n      0x20\n        /* \"#utility.yul\":1359:1368   */\n      dup3\n        /* \"#utility.yul\":1350:1357   */\n      dup5\n        /* \"#utility.yul\":1346:1369   */\n      sub\n        /* \"#utility.yul\":1342:1374   */\n      slt\n        /* \"#utility.yul\":1339:1458   */\n      iszero\n      tag_150\n      jumpi\n        /* \"#utility.yul\":1377:1456   */\n      tag_151\n      tag_142\n      jump\t// in\n    tag_151:\n        /* \"#utility.yul\":1339:1458   */\n    tag_150:\n        /* \"#utility.yul\":1497:1498   */\n      0x00\n        /* \"#utility.yul\":1522:1583   */\n      tag_152\n        /* \"#utility.yul\":1575:1582   */\n      dup5\n        /* \"#utility.yul\":1566:1572   */\n      dup3\n        /* \"#utility.yul\":1555:1564   */\n      dup6\n        /* \"#utility.yul\":1551:1573   */\n      add\n        /* \"#utility.yul\":1522:1583   */\n      tag_131\n      jump\t// in\n    tag_152:\n        /* \"#utility.yul\":1512:1583   */\n      swap2\n      pop\n        /* \"#utility.yul\":1468:1593   */\n      pop\n        /* \"#utility.yul\":1255:1600   */\n      swap3\n      swap2\n      pop\n      pop\n      jump\t// out\n        /* \"#utility.yul\":1606:1935   */\n    tag_56:\n        /* \"#utility.yul\":1665:1671   */\n      0x00\n        /* \"#utility.yul\":1714:1716   */\n      0x20\n        /* \"#utility.yul\":1702:1711   */\n      dup3\n        /* \"#utility.yul\":1693:1700   */\n      dup5\n        /* \"#utility.yul\":1689:1712   */\n      sub\n        /* \"#utility.yul\":1685:1717   */\n      slt\n        /* \"#utility.yul\":1682:1801   */\n      iszero\n      tag_154\n      jumpi\n        /* \"#utility.yul\":1720:1799   */\n      tag_155\n      tag_142\n      jump\t// in\n    tag_155:\n        /* \"#utility.yul\":1682:1801   */\n    tag_154:\n        /* \"#utility.yul\":1840:1841   */\n      0x00\n        /* \"#utility.yul\":1865:1918   */\n      tag_156\n        /* \"#utility.yul\":1910:1917   */\n      dup5\n        /* \"#utility.yul\":1901:1907   */\n      dup3\n        /* \"#utility.yul\":1890:1899   */\n      dup6\n        /* \"#utility.yul\":1886:1908   */\n      add\n        /* \"#utility.yul\":1865:1918   */\n      tag_135\n      jump\t// in\n    tag_156:\n        /* \"#utility.yul\":1855:1918   */\n      swap2\n      pop\n        /* \"#utility.yul\":1811:1928   */\n      pop\n        /* \"#utility.yul\":1606:1935   */\n      swap3\n      swap2\n      pop\n      pop\n      jump\t// out\n        /* \"#utility.yul\":1941:2067   */\n    tag_157:\n        /* \"#utility.yul\":2036:2060   */\n      tag_159\n        /* \"#utility.yul\":2054:2059   */\n      dup2\n        /* \"#utility.yul\":2036:2060   */\n      tag_160\n      jump\t// in\n    tag_159:\n        /* \"#utility.yul\":2031:2034   */\n      dup3\n        /* \"#utility.yul\":2024:2061   */\n      mstore\n        /* \"#utility.yul\":1941:2067   */\n      pop\n      pop\n      jump\t// out\n        /* \"#utility.yul\":2073:2182   */\n    tag_161:\n        /* \"#utility.yul\":2154:2175   */\n      tag_163\n        /* \"#utility.yul\":2169:2174   */\n      dup2\n        /* \"#utility.yul\":2154:2175   */\n      tag_164\n      jump\t// in\n    tag_163:\n        /* \"#utility.yul\":2149:2152   */\n      dup3\n        /* \"#utility.yul\":2142:2176   */\n      mstore\n        /* \"#utility.yul\":2073:2182   */\n      pop\n      pop\n      jump\t// out\n        /* \"#utility.yul\":2188:2552   */\n    tag_165:\n        /* \"#utility.yul\":2276:2279   */\n      0x00\n        /* \"#utility.yul\":2304:2343   */\n      tag_167\n        /* \"#utility.yul\":2337:2342   */\n      dup3\n        /* \"#utility.yul\":2304:2343   */\n      tag_168\n      jump\t// in\n    tag_167:\n        /* \"#utility.yul\":2359:2430   */\n      tag_169\n        /* \"#utility.yul\":2423:2429   */\n      dup2\n        /* \"#utility.yul\":2418:2421   */\n      dup6\n        /* \"#utility.yul\":2359:2430   */\n      tag_170\n      jump\t// in\n    tag_169:\n        /* \"#utility.yul\":2352:2430   */\n      swap4\n      pop\n        /* \"#utility.yul\":2439:2491   */\n      tag_171\n        /* \"#utility.yul\":2484:2490   */\n      dup2\n        /* \"#utility.yul\":2479:2482   */\n      dup6\n        /* \"#utility.yul\":2472:2476   */\n      0x20\n        /* \"#utility.yul\":2465:2470   */\n      dup7\n        /* \"#utility.yul\":2461:2477   */\n      add\n        /* \"#utility.yul\":2439:2491   */\n      tag_172\n      jump\t// in\n    tag_171:\n        /* \"#utility.yul\":2516:2545   */\n      tag_173\n        /* \"#utility.yul\":2538:2544   */\n      dup2\n        /* \"#utility.yul\":2516:2545   */\n      tag_174\n      jump\t// in\n    tag_173:\n        /* \"#utility.yul\":2511:2514   */\n      dup5\n        /* \"#utility.yul\":2507:2546   */\n      add\n        /* \"#utility.yul\":2500:2546   */\n      swap2\n      pop\n        /* \"#utility.yul\":2280:2552   */\n      pop\n        /* \"#utility.yul\":2188:2552   */\n      swap3\n      swap2\n      pop\n      pop\n      jump\t// out\n        /* \"#utility.yul\":2558:2924   */\n    tag_175:\n        /* \"#utility.yul\":2700:2703   */\n      0x00\n        /* \"#utility.yul\":2721:2788   */\n      tag_177\n        /* \"#utility.yul\":2785:2787   */\n      0x22\n        /* \"#utility.yul\":2780:2783   */\n      dup4\n        /* \"#utility.yul\":2721:2788   */\n      tag_170\n      jump\t// in\n    tag_177:\n        /* \"#utility.yul\":2714:2788   */\n      swap2\n      pop\n        /* \"#utility.yul\":2797:2890   */\n      tag_178\n        /* \"#utility.yul\":2886:2889   */\n      dup3\n        /* \"#utility.yul\":2797:2890   */\n      tag_179\n      jump\t// in\n    tag_178:\n        /* \"#utility.yul\":2915:2917   */\n      0x40\n        /* \"#utility.yul\":2910:2913   */\n      dup3\n        /* \"#utility.yul\":2906:2918   */\n      add\n        /* \"#utility.yul\":2899:2918   */\n      swap1\n      pop\n        /* \"#utility.yul\":2558:2924   */\n      swap2\n      swap1\n      pop\n      jump\t// out\n        /* \"#utility.yul\":2930:3296   */\n    tag_180:\n        /* \"#utility.yul\":3072:3075   */\n      0x00\n        /* \"#utility.yul\":3093:3160   */\n      tag_182\n        /* \"#utility.yul\":3157:3159   */\n      0x14\n        /* \"#utility.yul\":3152:3155   */\n      dup4\n        /* \"#utility.yul\":3093:3160   */\n      tag_170\n      jump\t// in\n    tag_182:\n        /* \"#utility.yul\":3086:3160   */\n      swap2\n      pop\n        /* \"#utility.yul\":3169:3262   */\n      tag_183\n        /* \"#utility.yul\":3258:3261   */\n      dup3\n        /* \"#utility.yul\":3169:3262   */\n      tag_184\n      jump\t// in\n    tag_183:\n        /* \"#utility.yul\":3287:3289   */\n      0x20\n        /* \"#utility.yul\":3282:3285   */\n      dup3\n        /* \"#utility.yul\":3278:3290   */\n      add\n        /* \"#utility.yul\":3271:3290   */\n      swap1\n      pop\n        /* \"#utility.yul\":2930:3296   */\n      swap2\n      swap1\n      pop\n      jump\t// out\n        /* \"#utility.yul\":3302:3668   */\n    tag_185:\n        /* \"#utility.yul\":3444:3447   */\n      0x00\n        /* \"#utility.yul\":3465:3532   */\n      tag_187\n        /* \"#utility.yul\":3529:3531   */\n      0x20\n        /* \"#utility.yul\":3524:3527   */\n      dup4\n        /* \"#utility.yul\":3465:3532   */\n      tag_170\n      jump\t// in\n    tag_187:\n        /* \"#utility.yul\":3458:3532   */\n      swap2\n      pop\n        /* \"#utility.yul\":3541:3634   */\n      tag_188\n        /* \"#utility.yul\":3630:3633   */\n      dup3\n        /* \"#utility.yul\":3541:3634   */\n      tag_189\n      jump\t// in\n    tag_188:\n        /* \"#utility.yul\":3659:3661   */\n      0x20\n        /* \"#utility.yul\":3654:3657   */\n      dup3\n        /* \"#utility.yul\":3650:3662   */\n      add\n        /* \"#utility.yul\":3643:3662   */\n      swap1\n      pop\n        /* \"#utility.yul\":3302:3668   */\n      swap2\n      swap1\n      pop\n      jump\t// out\n        /* \"#utility.yul\":3674:4040   */\n    tag_190:\n        /* \"#utility.yul\":3816:3819   */\n      0x00\n        /* \"#utility.yul\":3837:3904   */\n      tag_192\n        /* \"#utility.yul\":3901:3903   */\n      0x11\n        /* \"#utility.yul\":3896:3899   */\n      dup4\n        /* \"#utility.yul\":3837:3904   */\n      tag_170\n      jump\t// in\n    tag_192:\n        /* \"#utility.yul\":3830:3904   */\n      swap2\n      pop\n        /* \"#utility.yul\":3913:4006   */\n      tag_193\n        /* \"#utility.yul\":4002:4005   */\n      dup3\n        /* \"#utility.yul\":3913:4006   */\n      tag_194\n      jump\t// in\n    tag_193:\n        /* \"#utility.yul\":4031:4033   */\n      0x20\n        /* \"#utility.yul\":4026:4029   */\n      dup3\n        /* \"#utility.yul\":4022:4034   */\n      add\n        /* \"#utility.yul\":4015:4034   */\n      swap1\n      pop\n        /* \"#utility.yul\":3674:4040   */\n      swap2\n      swap1\n      pop\n      jump\t// out\n        /* \"#utility.yul\":4046:4412   */\n    tag_195:\n        /* \"#utility.yul\":4188:4191   */\n      0x00\n        /* \"#utility.yul\":4209:4276   */\n      tag_197\n        /* \"#utility.yul\":4273:4275   */\n      0x27\n        /* \"#utility.yul\":4268:4271   */\n      dup4\n        /* \"#utility.yul\":4209:4276   */\n      tag_170\n      jump\t// in\n    tag_197:\n        /* \"#utility.yul\":4202:4276   */\n      swap2\n      pop\n        /* \"#utility.yul\":4285:4378   */\n      tag_198\n        /* \"#utility.yul\":4374:4377   */\n      dup3\n        /* \"#utility.yul\":4285:4378   */\n      tag_199\n      jump\t// in\n    tag_198:\n        /* \"#utility.yul\":4403:4405   */\n      0x40\n        /* \"#utility.yul\":4398:4401   */\n      dup3\n        /* \"#utility.yul\":4394:4406   */\n      add\n        /* \"#utility.yul\":4387:4406   */\n      swap1\n      pop\n        /* \"#utility.yul\":4046:4412   */\n      swap2\n      swap1\n      pop\n      jump\t// out\n        /* \"#utility.yul\":4418:4784   */\n    tag_200:\n        /* \"#utility.yul\":4560:4563   */\n      0x00\n        /* \"#utility.yul\":4581:4648   */\n      tag_202\n        /* \"#utility.yul\":4645:4647   */\n      0x22\n        /* \"#utility.yul\":4640:4643   */\n      dup4\n        /* \"#utility.yul\":4581:4648   */\n      tag_170\n      jump\t// in\n    tag_202:\n        /* \"#utility.yul\":4574:4648   */\n      swap2\n      pop\n        /* \"#utility.yul\":4657:4750   */\n      tag_203\n        /* \"#utility.yul\":4746:4749   */\n      dup3\n        /* \"#utility.yul\":4657:4750   */\n      tag_204\n      jump\t// in\n    tag_203:\n        /* \"#utility.yul\":4775:4777   */\n      0x40\n        /* \"#utility.yul\":4770:4773   */\n      dup3\n        /* \"#utility.yul\":4766:4778   */\n      add\n        /* \"#utility.yul\":4759:4778   */\n      swap1\n      pop\n        /* \"#utility.yul\":4418:4784   */\n      swap2\n      swap1\n      pop\n      jump\t// out\n        /* \"#utility.yul\":4790:4908   */\n    tag_205:\n        /* \"#utility.yul\":4877:4901   */\n      tag_207\n        /* \"#utility.yul\":4895:4900   */\n      dup2\n        /* \"#utility.yul\":4877:4901   */\n      tag_208\n      jump\t// in\n    tag_207:\n        /* \"#utility.yul\":4872:4875   */\n      dup3\n        /* \"#utility.yul\":4865:4902   */\n      mstore\n        /* \"#utility.yul\":4790:4908   */\n      pop\n      pop\n      jump\t// out\n        /* \"#utility.yul\":4914:5040   */\n    tag_209:\n        /* \"#utility.yul\":5009:5033   */\n      tag_211\n        /* \"#utility.yul\":5027:5032   */\n      dup2\n        /* \"#utility.yul\":5009:5033   */\n      tag_208\n      jump\t// in\n    tag_211:\n        /* \"#utility.yul\":5004:5007   */\n      dup3\n        /* \"#utility.yul\":4997:5034   */\n      mstore\n        /* \"#utility.yul\":4914:5040   */\n      pop\n      pop\n      jump\t// out\n        /* \"#utility.yul\":5046:5256   */\n    tag_35:\n        /* \"#utility.yul\":5133:5137   */\n      0x00\n        /* \"#utility.yul\":5171:5173   */\n      0x20\n        /* \"#utility.yul\":5160:5169   */\n      dup3\n        /* \"#utility.yul\":5156:5174   */\n      add\n        /* \"#utility.yul\":5148:5174   */\n      swap1\n      pop\n        /* \"#utility.yul\":5184:5249   */\n      tag_213\n        /* \"#utility.yul\":5246:5247   */\n      0x00\n        /* \"#utility.yul\":5235:5244   */\n      dup4\n        /* \"#utility.yul\":5231:5248   */\n      add\n        /* \"#utility.yul\":5222:5228   */\n      dup5\n        /* \"#utility.yul\":5184:5249   */\n      tag_161\n      jump\t// in\n    tag_213:\n        /* \"#utility.yul\":5046:5256   */\n      swap3\n      swap2\n      pop\n      pop\n      jump\t// out\n        /* \"#utility.yul\":5262:5575   */\n    tag_19:\n        /* \"#utility.yul\":5375:5379   */\n      0x00\n        /* \"#utility.yul\":5413:5415   */\n      0x20\n        /* \"#utility.yul\":5402:5411   */\n      dup3\n        /* \"#utility.yul\":5398:5416   */\n      add\n        /* \"#utility.yul\":5390:5416   */\n      swap1\n      pop\n        /* \"#utility.yul\":5462:5471   */\n      dup2\n        /* \"#utility.yul\":5456:5460   */\n      dup2\n        /* \"#utility.yul\":5452:5472   */\n      sub\n        /* \"#utility.yul\":5448:5449   */\n      0x00\n        /* \"#utility.yul\":5437:5446   */\n      dup4\n        /* \"#utility.yul\":5433:5450   */\n      add\n        /* \"#utility.yul\":5426:5473   */\n      mstore\n        /* \"#utility.yul\":5490:5568   */\n      tag_215\n        /* \"#utility.yul\":5563:5567   */\n      dup2\n        /* \"#utility.yul\":5554:5560   */\n      dup5\n        /* \"#utility.yul\":5490:5568   */\n      tag_165\n      jump\t// in\n    tag_215:\n        /* \"#utility.yul\":5482:5568   */\n      swap1\n      pop\n        /* \"#utility.yul\":5262:5575   */\n      swap3\n      swap2\n      pop\n      pop\n      jump\t// out\n        /* \"#utility.yul\":5581:6000   */\n    tag_92:\n        /* \"#utility.yul\":5747:5751   */\n      0x00\n        /* \"#utility.yul\":5785:5787   */\n      0x20\n        /* \"#utility.yul\":5774:5783   */\n      dup3\n        /* \"#utility.yul\":5770:5788   */\n      add\n        /* \"#utility.yul\":5762:5788   */\n      swap1\n      pop\n        /* \"#utility.yul\":5834:5843   */\n      dup2\n        /* \"#utility.yul\":5828:5832   */\n      dup2\n        /* \"#utility.yul\":5824:5844   */\n      sub\n        /* \"#utility.yul\":5820:5821   */\n      0x00\n        /* \"#utility.yul\":5809:5818   */\n      dup4\n        /* \"#utility.yul\":5805:5822   */\n      add\n        /* \"#utility.yul\":5798:5845   */\n      mstore\n        /* \"#utility.yul\":5862:5993   */\n      tag_217\n        /* \"#utility.yul\":5988:5992   */\n      dup2\n        /* \"#utility.yul\":5862:5993   */\n      tag_175\n      jump\t// in\n    tag_217:\n        /* \"#utility.yul\":5854:5993   */\n      swap1\n      pop\n        /* \"#utility.yul\":5581:6000   */\n      swap2\n      swap1\n      pop\n      jump\t// out\n        /* \"#utility.yul\":6006:6425   */\n    tag_100:\n        /* \"#utility.yul\":6172:6176   */\n      0x00\n        /* \"#utility.yul\":6210:6212   */\n      0x20\n        /* \"#utility.yul\":6199:6208   */\n      dup3\n        /* \"#utility.yul\":6195:6213   */\n      add\n        /* \"#utility.yul\":6187:6213   */\n      swap1\n      pop\n        /* \"#utility.yul\":6259:6268   */\n      dup2\n        /* \"#utility.yul\":6253:6257   */\n      dup2\n        /* \"#utility.yul\":6249:6269   */\n      sub\n        /* \"#utility.yul\":6245:6246   */\n      0x00\n        /* \"#utility.yul\":6234:6243   */\n      dup4\n        /* \"#utility.yul\":6230:6247   */\n      add\n        /* \"#utility.yul\":6223:6270   */\n      mstore\n        /* \"#utility.yul\":6287:6418   */\n      tag_219\n        /* \"#utility.yul\":6413:6417   */\n      dup2\n        /* \"#utility.yul\":6287:6418   */\n      tag_180\n      jump\t// in\n    tag_219:\n        /* \"#utility.yul\":6279:6418   */\n      swap1\n      pop\n        /* \"#utility.yul\":6006:6425   */\n      swap2\n      swap1\n      pop\n      jump\t// out\n        /* \"#utility.yul\":6431:6850   */\n    tag_106:\n        /* \"#utility.yul\":6597:6601   */\n      0x00\n        /* \"#utility.yul\":6635:6637   */\n      0x20\n        /* \"#utility.yul\":6624:6633   */\n      dup3\n        /* \"#utility.yul\":6620:6638   */\n      add\n        /* \"#utility.yul\":6612:6638   */\n      swap1\n      pop\n        /* \"#utility.yul\":6684:6693   */\n      dup2\n        /* \"#utility.yul\":6678:6682   */\n      dup2\n        /* \"#utility.yul\":6674:6694   */\n      sub\n        /* \"#utility.yul\":6670:6671   */\n      0x00\n        /* \"#utility.yul\":6659:6668   */\n      dup4\n        /* \"#utility.yul\":6655:6672   */\n      add\n        /* \"#utility.yul\":6648:6695   */\n      mstore\n        /* \"#utility.yul\":6712:6843   */\n      tag_221\n        /* \"#utility.yul\":6838:6842   */\n      dup2\n        /* \"#utility.yul\":6712:6843   */\n      tag_185\n      jump\t// in\n    tag_221:\n        /* \"#utility.yul\":6704:6843   */\n      swap1\n      pop\n        /* \"#utility.yul\":6431:6850   */\n      swap2\n      swap1\n      pop\n      jump\t// out\n        /* \"#utility.yul\":6856:7275   */\n    tag_116:\n        /* \"#utility.yul\":7022:7026   */\n      0x00\n        /* \"#utility.yul\":7060:7062   */\n      0x20\n        /* \"#utility.yul\":7049:7058   */\n      dup3\n        /* \"#utility.yul\":7045:7063   */\n      add\n        /* \"#utility.yul\":7037:7063   */\n      swap1\n      pop\n        /* \"#utility.yul\":7109:7118   */\n      dup2\n        /* \"#utility.yul\":7103:7107   */\n      dup2\n        /* \"#utility.yul\":7099:7119   */\n      sub\n        /* \"#utility.yul\":7095:7096   */\n      0x00\n        /* \"#utility.yul\":7084:7093   */\n      dup4\n        /* \"#utility.yul\":7080:7097   */\n      add\n        /* \"#utility.yul\":7073:7120   */\n      mstore\n        /* \"#utility.yul\":7137:7268   */\n      tag_223\n        /* \"#utility.yul\":7263:7267   */\n      dup2\n        /* \"#utility.yul\":7137:7268   */\n      tag_190\n      jump\t// in\n    tag_223:\n        /* \"#utility.yul\":7129:7268   */\n      swap1\n      pop\n        /* \"#utility.yul\":6856:7275   */\n      swap2\n      swap1\n      pop\n      jump\t// out\n        /* \"#utility.yul\":7281:7700   */\n    tag_84:\n        /* \"#utility.yul\":7447:7451   */\n      0x00\n        /* \"#utility.yul\":7485:7487   */\n      0x20\n        /* \"#utility.yul\":7474:7483   */\n      dup3\n        /* \"#utility.yul\":7470:7488   */\n      add\n        /* \"#utility.yul\":7462:7488   */\n      swap1\n      pop\n        /* \"#utility.yul\":7534:7543   */\n      dup2\n        /* \"#utility.yul\":7528:7532   */\n      dup2\n        /* \"#utility.yul\":7524:7544   */\n      sub\n        /* \"#utility.yul\":7520:7521   */\n      0x00\n        /* \"#utility.yul\":7509:7518   */\n      dup4\n        /* \"#utility.yul\":7505:7522   */\n      add\n        /* \"#utility.yul\":7498:7545   */\n      mstore\n        /* \"#utility.yul\":7562:7693   */\n      tag_225\n        /* \"#utility.yul\":7688:7692   */\n      dup2\n        /* \"#utility.yul\":7562:7693   */\n      tag_195\n      jump\t// in\n    tag_225:\n        /* \"#utility.yul\":7554:7693   */\n      swap1\n      pop\n        /* \"#utility.yul\":7281:7700   */\n      swap2\n      swap1\n      pop\n      jump\t// out\n        /* \"#utility.yul\":7706:8125   */\n    tag_76:\n        /* \"#utility.yul\":7872:7876   */\n      0x00\n        /* \"#utility.yul\":7910:7912   */\n      0x20\n        /* \"#utility.yul\":7899:7908   */\n      dup3\n        /* \"#utility.yul\":7895:7913   */\n      add\n        /* \"#utility.yul\":7887:7913   */\n      swap1\n      pop\n        /* \"#utility.yul\":7959:7968   */\n      dup2\n        /* \"#utility.yul\":7953:7957   */\n      dup2\n        /* \"#utility.yul\":7949:7969   */\n      sub\n        /* \"#utility.yul\":7945:7946   */\n      0x00\n        /* \"#utility.yul\":7934:7943   */\n      dup4\n        /* \"#utility.yul\":7930:7947   */\n      add\n        /* \"#utility.yul\":7923:7970   */\n      mstore\n        /* \"#utility.yul\":7987:8118   */\n      tag_227\n        /* \"#utility.yul\":8113:8117   */\n      dup2\n        /* \"#utility.yul\":7987:8118   */\n      tag_200\n      jump\t// in\n    tag_227:\n        /* \"#utility.yul\":7979:8118   */\n      swap1\n      pop\n        /* \"#utility.yul\":7706:8125   */\n      swap2\n      swap1\n      pop\n      jump\t// out\n        /* \"#utility.yul\":8131:8353   */\n    tag_28:\n        /* \"#utility.yul\":8224:8228   */\n      0x00\n        /* \"#utility.yul\":8262:8264   */\n      0x20\n        /* \"#utility.yul\":8251:8260   */\n      dup3\n        /* \"#utility.yul\":8247:8265   */\n      add\n        /* \"#utility.yul\":8239:8265   */\n      swap1\n      pop\n        /* \"#utility.yul\":8275:8346   */\n      tag_229\n        /* \"#utility.yul\":8343:8344   */\n      0x00\n        /* \"#utility.yul\":8332:8341   */\n      dup4\n        /* \"#utility.yul\":8328:8345   */\n      add\n        /* \"#utility.yul\":8319:8325   */\n      dup5\n        /* \"#utility.yul\":8275:8346   */\n      tag_205\n      jump\t// in\n    tag_229:\n        /* \"#utility.yul\":8131:8353   */\n      swap3\n      swap2\n      pop\n      pop\n      jump\t// out\n        /* \"#utility.yul\":8359:8715   */\n    tag_108:\n        /* \"#utility.yul\":8488:8492   */\n      0x00\n        /* \"#utility.yul\":8526:8528   */\n      0x40\n        /* \"#utility.yul\":8515:8524   */\n      dup3\n        /* \"#utility.yul\":8511:8529   */\n      add\n        /* \"#utility.yul\":8503:8529   */\n      swap1\n      pop\n        /* \"#utility.yul\":8539:8618   */\n      tag_231\n        /* \"#utility.yul\":8615:8616   */\n      0x00\n        /* \"#utility.yul\":8604:8613   */\n      dup4\n        /* \"#utility.yul\":8600:8617   */\n      add\n        /* \"#utility.yul\":8591:8597   */\n      dup6\n        /* \"#utility.yul\":8539:8618   */\n      tag_209\n      jump\t// in\n    tag_231:\n        /* \"#utility.yul\":8628:8708   */\n      tag_232\n        /* \"#utility.yul\":8704:8706   */\n      0x20\n        /* \"#utility.yul\":8693:8702   */\n      dup4\n        /* \"#utility.yul\":8689:8707   */\n      add\n        /* \"#utility.yul\":8680:8686   */\n      dup5\n        /* \"#utility.yul\":8628:8708   */\n      tag_157\n      jump\t// in\n    tag_232:\n        /* \"#utility.yul\":8359:8715   */\n      swap4\n      swap3\n      pop\n      pop\n      pop\n      jump\t// out\n        /* \"#utility.yul\":8802:8901   */\n    tag_168:\n        /* \"#utility.yul\":8854:8860   */\n      0x00\n        /* \"#utility.yul\":8888:8893   */\n      dup2\n        /* \"#utility.yul\":8882:8894   */\n      mload\n        /* \"#utility.yul\":8872:8894   */\n      swap1\n      pop\n        /* \"#utility.yul\":8802:8901   */\n      swap2\n      swap1\n      pop\n      jump\t// out\n        /* \"#utility.yul\":8907:9076   */\n    tag_170:\n        /* \"#utility.yul\":8991:9002   */\n      0x00\n        /* \"#utility.yul\":9025:9031   */\n      dup3\n        /* \"#utility.yul\":9020:9023   */\n      dup3\n        /* \"#utility.yul\":9013:9032   */\n      mstore\n        /* \"#utility.yul\":9065:9069   */\n      0x20\n        /* \"#utility.yul\":9060:9063   */\n      dup3\n        /* \"#utility.yul\":9056:9070   */\n      add\n        /* \"#utility.yul\":9041:9070   */\n      swap1\n      pop\n        /* \"#utility.yul\":8907:9076   */\n      swap3\n      swap2\n      pop\n      pop\n      jump\t// out\n        /* \"#utility.yul\":9082:9387   */\n    tag_122:\n        /* \"#utility.yul\":9122:9125   */\n      0x00\n        /* \"#utility.yul\":9141:9161   */\n      tag_238\n        /* \"#utility.yul\":9159:9160   */\n      dup3\n        /* \"#utility.yul\":9141:9161   */\n      tag_208\n      jump\t// in\n    tag_238:\n        /* \"#utility.yul\":9136:9161   */\n      swap2\n      pop\n        /* \"#utility.yul\":9175:9195   */\n      tag_239\n        /* \"#utility.yul\":9193:9194   */\n      dup4\n        /* \"#utility.yul\":9175:9195   */\n      tag_208\n      jump\t// in\n    tag_239:\n        /* \"#utility.yul\":9170:9195   */\n      swap3\n      pop\n        /* \"#utility.yul\":9329:9330   */\n      dup3\n        /* \"#utility.yul\":9261:9327   */\n      0xffffffffffffffffffffffffffffffffffffffffffffffffffffffffffffffff\n        /* \"#utility.yul\":9257:9331   */\n      sub\n        /* \"#utility.yul\":9254:9255   */\n      dup3\n        /* \"#utility.yul\":9251:9332   */\n      gt\n        /* \"#utility.yul\":9248:9355   */\n      iszero\n      tag_240\n      jumpi\n        /* \"#utility.yul\":9335:9353   */\n      tag_241\n      tag_242\n      jump\t// in\n    tag_241:\n        /* \"#utility.yul\":9248:9355   */\n    tag_240:\n        /* \"#utility.yul\":9379:9380   */\n      dup3\n        /* \"#utility.yul\":9376:9377   */\n      dup3\n        /* \"#utility.yul\":9372:9381   */\n      add\n        /* \"#utility.yul\":9365:9381   */\n      swap1\n      pop\n        /* \"#utility.yul\":9082:9387   */\n      swap3\n      swap2\n      pop\n      pop\n      jump\t// out\n        /* \"#utility.yul\":9393:9741   */\n    tag_102:\n        /* \"#utility.yul\":9433:9440   */\n      0x00\n        /* \"#utility.yul\":9456:9476   */\n      tag_244\n        /* \"#utility.yul\":9474:9475   */\n      dup3\n        /* \"#utility.yul\":9456:9476   */\n      tag_208\n      jump\t// in\n    tag_244:\n        /* \"#utility.yul\":9451:9476   */\n      swap2\n      pop\n        /* \"#utility.yul\":9490:9510   */\n      tag_245\n        /* \"#utility.yul\":9508:9509   */\n      dup4\n        /* \"#utility.yul\":9490:9510   */\n      tag_208\n      jump\t// in\n    tag_245:\n        /* \"#utility.yul\":9485:9510   */\n      swap3\n      pop\n        /* \"#utility.yul\":9678:9679   */\n      dup2\n        /* \"#utility.yul\":9610:9676   */\n      0xffffffffffffffffffffffffffffffffffffffffffffffffffffffffffffffff\n        /* \"#utility.yul\":9606:9680   */\n      div\n        /* \"#utility.yul\":9603:9604   */\n      dup4\n        /* \"#utility.yul\":9600:9681   */\n      gt\n        /* \"#utility.yul\":9595:9596   */\n      dup3\n        /* \"#utility.yul\":9588:9597   */\n      iszero\n        /* \"#utility.yul\":9581:9598   */\n      iszero\n        /* \"#utility.yul\":9577:9682   */\n      and\n        /* \"#utility.yul\":9574:9705   */\n      iszero\n      tag_246\n      jumpi\n        /* \"#utility.yul\":9685:9703   */\n      tag_247\n      tag_242\n      jump\t// in\n    tag_247:\n        /* \"#utility.yul\":9574:9705   */\n    tag_246:\n        /* \"#utility.yul\":9733:9734   */\n      dup3\n        /* \"#utility.yul\":9730:9731   */\n      dup3\n        /* \"#utility.yul\":9726:9735   */\n      mul\n        /* \"#utility.yul\":9715:9735   */\n      swap1\n      pop\n        /* \"#utility.yul\":9393:9741   */\n      swap3\n      swap2\n      pop\n      pop\n      jump\t// out\n        /* \"#utility.yul\":9747:9938   */\n    tag_125:\n        /* \"#utility.yul\":9787:9791   */\n      0x00\n        /* \"#utility.yul\":9807:9827   */\n      tag_249\n        /* \"#utility.yul\":9825:9826   */\n      dup3\n        /* \"#utility.yul\":9807:9827   */\n      tag_208\n      jump\t// in\n    tag_249:\n        /* \"#utility.yul\":9802:9827   */\n      swap2\n      pop\n        /* \"#utility.yul\":9841:9861   */\n      tag_250\n        /* \"#utility.yul\":9859:9860   */\n      dup4\n        /* \"#utility.yul\":9841:9861   */\n      tag_208\n      jump\t// in\n    tag_250:\n        /* \"#utility.yul\":9836:9861   */\n      swap3\n      pop\n        /* \"#utility.yul\":9880:9881   */\n      dup3\n        /* \"#utility.yul\":9877:9878   */\n      dup3\n        /* \"#utility.yul\":9874:9882   */\n      lt\n        /* \"#utility.yul\":9871:9905   */\n      iszero\n      tag_251\n      jumpi\n        /* \"#utility.yul\":9885:9903   */\n      tag_252\n      tag_242\n      jump\t// in\n    tag_252:\n        /* \"#utility.yul\":9871:9905   */\n    tag_251:\n        /* \"#utility.yul\":9930:9931   */\n      dup3\n        /* \"#utility.yul\":9927:9928   */\n      dup3\n        /* \"#utility.yul\":9923:9932   */\n      sub\n        /* \"#utility.yul\":9915:9932   */\n      swap1\n      pop\n        /* \"#utility.yul\":9747:9938   */\n      swap3\n      swap2\n      pop\n      pop\n      jump\t// out\n        /* \"#utility.yul\":9944:10040   */\n    tag_160:\n        /* \"#utility.yul\":9981:9988   */\n      0x00\n        /* \"#utility.yul\":10010:10034   */\n      tag_254\n        /* \"#utility.yul\":10028:10033   */\n      dup3\n        /* \"#utility.yul\":10010:10034   */\n      tag_255\n      jump\t// in\n    tag_254:\n        /* \"#utility.yul\":9999:10034   */\n      swap1\n      pop\n        /* \"#utility.yul\":9944:10040   */\n      swap2\n      swap1\n      pop\n      jump\t// out\n        /* \"#utility.yul\":10046:10136   */\n    tag_164:\n        /* \"#utility.yul\":10080:10087   */\n      0x00\n        /* \"#utility.yul\":10123:10128   */\n      dup2\n        /* \"#utility.yul\":10116:10129   */\n      iszero\n        /* \"#utility.yul\":10109:10130   */\n      iszero\n        /* \"#utility.yul\":10098:10130   */\n      swap1\n      pop\n        /* \"#utility.yul\":10046:10136   */\n      swap2\n      swap1\n      pop\n      jump\t// out\n        /* \"#utility.yul\":10142:10268   */\n    tag_255:\n        /* \"#utility.yul\":10179:10186   */\n      0x00\n        /* \"#utility.yul\":10219:10261   */\n      0xffffffffffffffffffffffffffffffffffffffff\n        /* \"#utility.yul\":10212:10217   */\n      dup3\n        /* \"#utility.yul\":10208:10262   */\n      and\n        /* \"#utility.yul\":10197:10262   */\n      swap1\n      pop\n        /* \"#utility.yul\":10142:10268   */\n      swap2\n      swap1\n      pop\n      jump\t// out\n        /* \"#utility.yul\":10274:10351   */\n    tag_208:\n        /* \"#utility.yul\":10311:10318   */\n      0x00\n        /* \"#utility.yul\":10340:10345   */\n      dup2\n        /* \"#utility.yul\":10329:10345   */\n      swap1\n      pop\n        /* \"#utility.yul\":10274:10351   */\n      swap2\n      swap1\n      pop\n      jump\t// out\n        /* \"#utility.yul\":10357:10664   */\n    tag_172:\n        /* \"#utility.yul\":10425:10426   */\n      0x00\n        /* \"#utility.yul\":10435:10548   */\n    tag_260:\n        /* \"#utility.yul\":10449:10455   */\n      dup4\n        /* \"#utility.yul\":10446:10447   */\n      dup2\n        /* \"#utility.yul\":10443:10456   */\n      lt\n        /* \"#utility.yul\":10435:10548   */\n      iszero\n      tag_262\n      jumpi\n        /* \"#utility.yul\":10534:10535   */\n      dup1\n        /* \"#utility.yul\":10529:10532   */\n      dup3\n        /* \"#utility.yul\":10525:10536   */\n      add\n        /* \"#utility.yul\":10519:10537   */\n      mload\n        /* \"#utility.yul\":10515:10516   */\n      dup2\n        /* \"#utility.yul\":10510:10513   */\n      dup5\n        /* \"#utility.yul\":10506:10517   */\n      add\n        /* \"#utility.yul\":10499:10538   */\n      mstore\n        /* \"#utility.yul\":10471:10473   */\n      0x20\n        /* \"#utility.yul\":10468:10469   */\n      dup2\n        /* \"#utility.yul\":10464:10474   */\n      add\n        /* \"#utility.yul\":10459:10474   */\n      swap1\n      pop\n        /* \"#utility.yul\":10435:10548   */\n      jump(tag_260)\n    tag_262:\n        /* \"#utility.yul\":10566:10572   */\n      dup4\n        /* \"#utility.yul\":10563:10564   */\n      dup2\n        /* \"#utility.yul\":10560:10573   */\n      gt\n        /* \"#utility.yul\":10557:10658   */\n      iszero\n      tag_263\n      jumpi\n        /* \"#utility.yul\":10646:10647   */\n      0x00\n        /* \"#utility.yul\":10637:10643   */\n      dup5\n        /* \"#utility.yul\":10632:10635   */\n      dup5\n        /* \"#utility.yul\":10628:10644   */\n      add\n        /* \"#utility.yul\":10621:10648   */\n      mstore\n        /* \"#utility.yul\":10557:10658   */\n    tag_263:\n        /* \"#utility.yul\":10406:10664   */\n      pop\n        /* \"#utility.yul\":10357:10664   */\n      pop\n      pop\n      pop\n      jump\t// out\n        /* \"#utility.yul\":10670:10990   */\n    tag_61:\n        /* \"#utility.yul\":10714:10720   */\n      0x00\n        /* \"#utility.yul\":10751:10752   */\n      0x02\n        /* \"#utility.yul\":10745:10749   */\n      dup3\n        /* \"#utility.yul\":10741:10753   */\n      div\n        /* \"#utility.yul\":10731:10753   */\n      swap1\n      pop\n        /* \"#utility.yul\":10798:10799   */\n      0x01\n        /* \"#utility.yul\":10792:10796   */\n      dup3\n        /* \"#utility.yul\":10788:10800   */\n      and\n        /* \"#utility.yul\":10819:10837   */\n      dup1\n        /* \"#utility.yul\":10809:10890   */\n      tag_265\n      jumpi\n        /* \"#utility.yul\":10875:10879   */\n      0x7f\n        /* \"#utility.yul\":10867:10873   */\n      dup3\n        /* \"#utility.yul\":10863:10880   */\n      and\n        /* \"#utility.yul\":10853:10880   */\n      swap2\n      pop\n        /* \"#utility.yul\":10809:10890   */\n    tag_265:\n        /* \"#utility.yul\":10937:10939   */\n      0x20\n        /* \"#utility.yul\":10929:10935   */\n      dup3\n        /* \"#utility.yul\":10926:10940   */\n      lt\n        /* \"#utility.yul\":10906:10924   */\n      dup2\n        /* \"#utility.yul\":10903:10941   */\n      eq\n        /* \"#utility.yul\":10900:10984   */\n      iszero\n      tag_266\n      jumpi\n        /* \"#utility.yul\":10956:10974   */\n      tag_267\n      tag_268\n      jump\t// in\n    tag_267:\n        /* \"#utility.yul\":10900:10984   */\n    tag_266:\n        /* \"#utility.yul\":10721:10990   */\n      pop\n        /* \"#utility.yul\":10670:10990   */\n      swap2\n      swap1\n      pop\n      jump\t// out\n        /* \"#utility.yul\":10996:11176   */\n    tag_242:\n        /* \"#utility.yul\":11044:11121   */\n      0x4e487b7100000000000000000000000000000000000000000000000000000000\n        /* \"#utility.yul\":11041:11042   */\n      0x00\n        /* \"#utility.yul\":11034:11122   */\n      mstore\n        /* \"#utility.yul\":11141:11145   */\n      0x11\n        /* \"#utility.yul\":11138:11139   */\n      0x04\n        /* \"#utility.yul\":11131:11146   */\n      mstore\n        /* \"#utility.yul\":11165:11169   */\n      0x24\n        /* \"#utility.yul\":11162:11163   */\n      0x00\n        /* \"#utility.yul\":11155:11170   */\n      revert\n        /* \"#utility.yul\":11182:11362   */\n    tag_268:\n        /* \"#utility.yul\":11230:11307   */\n      0x4e487b7100000000000000000000000000000000000000000000000000000000\n        /* \"#utility.yul\":11227:11228   */\n      0x00\n        /* \"#utility.yul\":11220:11308   */\n      mstore\n        /* \"#utility.yul\":11327:11331   */\n      0x22\n        /* \"#utility.yul\":11324:11325   */\n      0x04\n        /* \"#utility.yul\":11317:11332   */\n      mstore\n        /* \"#utility.yul\":11351:11355   */\n      0x24\n        /* \"#utility.yul\":11348:11349   */\n      0x00\n        /* \"#utility.yul\":11341:11356   */\n      revert\n        /* \"#utility.yul\":11491:11608   */\n    tag_142:\n        /* \"#utility.yul\":11600:11601   */\n      0x00\n        /* \"#utility.yul\":11597:11598   */\n      dup1\n        /* \"#utility.yul\":11590:11602   */\n      revert\n        /* \"#utility.yul\":11614:11716   */\n    tag_174:\n        /* \"#utility.yul\":11655:11661   */\n      0x00\n        /* \"#utility.yul\":11706:11708   */\n      0x1f\n        /* \"#utility.yul\":11702:11709   */\n      not\n        /* \"#utility.yul\":11697:11699   */\n      0x1f\n        /* \"#utility.yul\":11690:11695   */\n      dup4\n        /* \"#utility.yul\":11686:11700   */\n      add\n        /* \"#utility.yul\":11682:11710   */\n      and\n        /* \"#utility.yul\":11672:11710   */\n      swap1\n      pop\n        /* \"#utility.yul\":11614:11716   */\n      swap2\n      swap1\n      pop\n      jump\t// out\n        /* \"#utility.yul\":11722:11943   */\n    tag_179:\n        /* \"#utility.yul\":11862:11896   */\n      0x596f7520646f206e6f7420686176652073756666696369656e742062616c616e\n        /* \"#utility.yul\":11858:11859   */\n      0x00\n        /* \"#utility.yul\":11850:11856   */\n      dup3\n        /* \"#utility.yul\":11846:11860   */\n      add\n        /* \"#utility.yul\":11839:11897   */\n      mstore\n        /* \"#utility.yul\":11931:11935   */\n      0x6365000000000000000000000000000000000000000000000000000000000000\n        /* \"#utility.yul\":11926:11928   */\n      0x20\n        /* \"#utility.yul\":11918:11924   */\n      dup3\n        /* \"#utility.yul\":11914:11929   */\n      add\n        /* \"#utility.yul\":11907:11936   */\n      mstore\n        /* \"#utility.yul\":11722:11943   */\n      pop\n      jump\t// out\n        /* \"#utility.yul\":11949:12119   */\n    tag_184:\n        /* \"#utility.yul\":12089:12111   */\n      0x496e73756666696369656e742062616c616e6365000000000000000000000000\n        /* \"#utility.yul\":12085:12086   */\n      0x00\n        /* \"#utility.yul\":12077:12083   */\n      dup3\n        /* \"#utility.yul\":12073:12087   */\n      add\n        /* \"#utility.yul\":12066:12112   */\n      mstore\n        /* \"#utility.yul\":11949:12119   */\n      pop\n      jump\t// out\n        /* \"#utility.yul\":12125:12307   */\n    tag_189:\n        /* \"#utility.yul\":12265:12299   */\n      0x436f6e74726163742062616c616e636520697320696e73756666696369656e74\n        /* \"#utility.yul\":12261:12262   */\n      0x00\n        /* \"#utility.yul\":12253:12259   */\n      dup3\n        /* \"#utility.yul\":12249:12263   */\n      add\n        /* \"#utility.yul\":12242:12300   */\n      mstore\n        /* \"#utility.yul\":12125:12307   */\n      pop\n      jump\t// out\n        /* \"#utility.yul\":12313:12480   */\n    tag_194:\n        /* \"#utility.yul\":12453:12472   */\n      0x556e7375636365737366756c2053656e64000000000000000000000000000000\n        /* \"#utility.yul\":12449:12450   */\n      0x00\n        /* \"#utility.yul\":12441:12447   */\n      dup3\n        /* \"#utility.yul\":12437:12451   */\n      add\n        /* \"#utility.yul\":12430:12473   */\n      mstore\n        /* \"#utility.yul\":12313:12480   */\n      pop\n      jump\t// out\n        /* \"#utility.yul\":12486:12712   */\n    tag_199:\n        /* \"#utility.yul\":12626:12660   */\n      0x4f6e6c7920746865206f776e65722063616e2064657374726f79207468652063\n        /* \"#utility.yul\":12622:12623   */\n      0x00\n        /* \"#utility.yul\":12614:12620   */\n      dup3\n        /* \"#utility.yul\":12610:12624   */\n      add\n        /* \"#utility.yul\":12603:12661   */\n      mstore\n        /* \"#utility.yul\":12695:12704   */\n      0x6f6e747261637400000000000000000000000000000000000000000000000000\n        /* \"#utility.yul\":12690:12692   */\n      0x20\n        /* \"#utility.yul\":12682:12688   */\n      dup3\n        /* \"#utility.yul\":12678:12693   */\n      add\n        /* \"#utility.yul\":12671:12705   */\n      mstore\n        /* \"#utility.yul\":12486:12712   */\n      pop\n      jump\t// out\n        /* \"#utility.yul\":12718:12939   */\n    tag_204:\n        /* \"#utility.yul\":12858:12892   */\n      0x4f6e6c7920746865206f776e65722063616e206d696e74206e657720746f6b65\n        /* \"#utility.yul\":12854:12855   */\n      0x00\n        /* \"#utility.yul\":12846:12852   */\n      dup3\n        /* \"#utility.yul\":12842:12856   */\n      add\n        /* \"#utility.yul\":12835:12893   */\n      mstore\n        /* \"#utility.yul\":12927:12931   */\n      0x6e73000000000000000000000000000000000000000000000000000000000000\n        /* \"#utility.yul\":12922:12924   */\n      0x20\n        /* \"#utility.yul\":12914:12920   */\n      dup3\n        /* \"#utility.yul\":12910:12925   */\n      add\n        /* \"#utility.yul\":12903:12932   */\n      mstore\n        /* \"#utility.yul\":12718:12939   */\n      pop\n      jump\t// out\n        /* \"#utility.yul\":12945:13067   */\n    tag_130:\n        /* \"#utility.yul\":13018:13042   */\n      tag_282\n        /* \"#utility.yul\":13036:13041   */\n      dup2\n        /* \"#utility.yul\":13018:13042   */\n      tag_160\n      jump\t// in\n    tag_282:\n        /* \"#utility.yul\":13011:13016   */\n      dup2\n        /* \"#utility.yul\":13008:13043   */\n      eq\n        /* \"#utility.yul\":12998:13061   */\n      tag_283\n      jumpi\n        /* \"#utility.yul\":13057:13058   */\n      0x00\n        /* \"#utility.yul\":13054:13055   */\n      dup1\n        /* \"#utility.yul\":13047:13059   */\n      revert\n        /* \"#utility.yul\":12998:13061   */\n    tag_283:\n        /* \"#utility.yul\":12945:13067   */\n      pop\n      jump\t// out\n        /* \"#utility.yul\":13073:13189   */\n    tag_134:\n        /* \"#utility.yul\":13143:13164   */\n      tag_285\n        /* \"#utility.yul\":13158:13163   */\n      dup2\n        /* \"#utility.yul\":13143:13164   */\n      tag_164\n      jump\t// in\n    tag_285:\n        /* \"#utility.yul\":13136:13141   */\n      dup2\n        /* \"#utility.yul\":13133:13165   */\n      eq\n        /* \"#utility.yul\":13123:13183   */\n      tag_286\n      jumpi\n        /* \"#utility.yul\":13179:13180   */\n      0x00\n        /* \"#utility.yul\":13176:13177   */\n      dup1\n        /* \"#utility.yul\":13169:13181   */\n      revert\n        /* \"#utility.yul\":13123:13183   */\n    tag_286:\n        /* \"#utility.yul\":13073:13189   */\n      pop\n      jump\t// out\n        /* \"#utility.yul\":13195:13317   */\n    tag_138:\n        /* \"#utility.yul\":13268:13292   */\n      tag_288\n        /* \"#utility.yul\":13286:13291   */\n      dup2\n        /* \"#utility.yul\":13268:13292   */\n      tag_208\n      jump\t// in\n    tag_288:\n        /* \"#utility.yul\":13261:13266   */\n      dup2\n        /* \"#utility.yul\":13258:13293   */\n      eq\n        /* \"#utility.yul\":13248:13311   */\n      tag_289\n      jumpi\n        /* \"#utility.yul\":13307:13308   */\n      0x00\n        /* \"#utility.yul\":13304:13305   */\n      dup1\n        /* \"#utility.yul\":13297:13309   */\n      revert\n        /* \"#utility.yul\":13248:13311   */\n    tag_289:\n        /* \"#utility.yul\":13195:13317   */\n      pop\n      jump\t// out\n\n    auxdata: 0xa26469706673582212205ee20f76ce4fedaaf9f53b50fc9504c3f7d1ef3d2cc9e54abb39850a57b0d62b64736f6c63430008070033\n}\n",
				"bytecode": {
					"linkReferences": {
						"Library.sol": {
							"customLib": [
								{
									"length": 20,
									"start": 3336
								}
							]
						}
					},
					"object": "60806040523480156200001157600080fd5b506040518060400160405280600c81526020017f437573746f6d20546f6b656e0000000000000000000000000000000000000000815250600190805190602001906200005f92919062000259565b506040518060400160405280600281526020017f435400000000000000000000000000000000000000000000000000000000000081525060029080519060200190620000ad92919062000259565b50610258600381905550336000806101000a81548173ffffffffffffffffffffffffffffffffffffffff021916908373ffffffffffffffffffffffffffffffffffffffff1602179055506001600660008060009054906101000a900473ffffffffffffffffffffffffffffffffffffffff1673ffffffffffffffffffffffffffffffffffffffff1673ffffffffffffffffffffffffffffffffffffffff16815260200190815260200160002060006101000a81548160ff021916908315150217905550620f4240600481905550600454600560008060009054906101000a900473ffffffffffffffffffffffffffffffffffffffff1673ffffffffffffffffffffffffffffffffffffffff1673ffffffffffffffffffffffffffffffffffffffff1681526020019081526020016000208190555060008054906101000a900473ffffffffffffffffffffffffffffffffffffffff1673ffffffffffffffffffffffffffffffffffffffff167f0f6798a560793a54c3bcfe86a93cde1e73087d944c0ea20544137d41213968856004546040516200024b91906200031a565b60405180910390a2620003a6565b828054620002679062000341565b90600052602060002090601f0160209004810192826200028b5760008555620002d7565b82601f10620002a657805160ff1916838001178555620002d7565b82800160010185558215620002d7579182015b82811115620002d6578251825591602001919060010190620002b9565b5b509050620002e69190620002ea565b5090565b5b8082111562000305576000816000905550600101620002eb565b5090565b620003148162000337565b82525050565b600060208201905062000331600083018462000309565b92915050565b6000819050919050565b600060028204905060018216806200035a57607f821691505b6020821081141562000371576200037062000377565b5b50919050565b7f4e487b7100000000000000000000000000000000000000000000000000000000600052602260045260246000fd5b6112e280620003b66000396000f3fe60806040526004361061008a5760003560e01c806343d726d61161005957806343d726d61461014b57806370a082311461016257806398d5fdca1461019f578063a9059cbb146101ca578063e4849b32146102075761008b565b8063150704011461008d57806317d7de7c146100b857806318160ddd146100e357806340c10f191461010e5761008b565b5b005b34801561009957600080fd5b506100a2610237565b6040516100af9190610db8565b60405180910390f35b3480156100c457600080fd5b506100cd6102c9565b6040516100da9190610db8565b60405180910390f35b3480156100ef57600080fd5b506100f861035b565b6040516101059190610e9a565b60405180910390f35b34801561011a57600080fd5b5061013560048036038101906101309190610bbc565b610365565b6040516101429190610d9d565b60405180910390f35b34801561015757600080fd5b50610160610502565b005b34801561016e57600080fd5b5061018960048036038101906101849190610b8f565b6105ce565b6040516101969190610e9a565b60405180910390f35b3480156101ab57600080fd5b506101b4610617565b6040516101c19190610e9a565b60405180910390f35b3480156101d657600080fd5b506101f160048036038101906101ec9190610bbc565b610621565b6040516101fe9190610d9d565b60405180910390f35b610221600480360381019061021c9190610c29565b610850565b60405161022e9190610d9d565b60405180910390f35b60606002805461024690611059565b80601f016020809104026020016040519081016040528092919081815260200182805461027290611059565b80156102bf5780601f10610294576101008083540402835291602001916102bf565b820191906000526020600020905b8154815290600101906020018083116102a257829003601f168201915b5050505050905090565b6060600180546102d890611059565b80601f016020809104026020016040519081016040528092919081815260200182805461030490611059565b80156103515780601f1061032657610100808354040283529160200191610351565b820191906000526020600020905b81548152906001019060200180831161033457829003601f168201915b5050505050905090565b6000600454905090565b600060011515600660003373ffffffffffffffffffffffffffffffffffffffff1673ffffffffffffffffffffffffffffffffffffffff16815260200190815260200160002060009054906101000a900460ff161515146103fa576040517f08c379a00000000000000000000000000000000000000000000000000000000081526004016103f190610e7a565b60405180910390fd5b61040f82600454610b2490919063ffffffff16565b60048190555061046782600560008673ffffffffffffffffffffffffffffffffffffffff1673ffffffffffffffffffffffffffffffffffffffff16815260200190815260200160002054610b2490919063ffffffff16565b600560008573ffffffffffffffffffffffffffffffffffffffff1673ffffffffffffffffffffffffffffffffffffffff168152602001908152602001600020819055508273ffffffffffffffffffffffffffffffffffffffff167f0f6798a560793a54c3bcfe86a93cde1e73087d944c0ea20544137d4121396885836040516104f09190610e9a565b60405180910390a26001905092915050565b60011515600660003373ffffffffffffffffffffffffffffffffffffffff1673ffffffffffffffffffffffffffffffffffffffff16815260200190815260200160002060009054906101000a900460ff16151514610595576040517f08c379a000000000000000000000000000000000000000000000000000000000815260040161058c90610e5a565b60405180910390fd5b60008054906101000a900473ffffffffffffffffffffffffffffffffffffffff1673ffffffffffffffffffffffffffffffffffffffff16ff5b6000600560008373ffffffffffffffffffffffffffffffffffffffff1673ffffffffffffffffffffffffffffffffffffffff168152602001908152602001600020549050919050565b6000600354905090565b60008061067683600560003373ffffffffffffffffffffffffffffffffffffffff1673ffffffffffffffffffffffffffffffffffffffff16815260200190815260200160002054610b3a90919063ffffffff16565b10156106b7576040517f08c379a00000000000000000000000000000000000000000000000000000000081526004016106ae90610dda565b60405180910390fd5b61070982600560003373ffffffffffffffffffffffffffffffffffffffff1673ffffffffffffffffffffffffffffffffffffffff16815260200190815260200160002054610b3a90919063ffffffff16565b600560003373ffffffffffffffffffffffffffffffffffffffff1673ffffffffffffffffffffffffffffffffffffffff1681526020019081526020016000208190555061079e82600560008673ffffffffffffffffffffffffffffffffffffffff1673ffffffffffffffffffffffffffffffffffffffff16815260200190815260200160002054610b2490919063ffffffff16565b600560008573ffffffffffffffffffffffffffffffffffffffff1673ffffffffffffffffffffffffffffffffffffffff168152602001908152602001600020819055508273ffffffffffffffffffffffffffffffffffffffff163373ffffffffffffffffffffffffffffffffffffffff167fddf252ad1be2c89b69c2b068fc378daa952ba7f163c4a11628f55a4df523b3ef8460405161083e9190610e9a565b60405180910390a36001905092915050565b6000806108a583600560003373ffffffffffffffffffffffffffffffffffffffff1673ffffffffffffffffffffffffffffffffffffffff16815260200190815260200160002054610b3a90919063ffffffff16565b10156108e6576040517f08c379a00000000000000000000000000000000000000000000000000000000081526004016108dd90610dfa565b60405180910390fd5b6000610258836108f69190610f50565b9050600061090d8247610b3a90919063ffffffff16565b101561094e576040517f08c379a000000000000000000000000000000000000000000000000000000000815260040161094590610e1a565b60405180910390fd5b600073__$97e65d3ecb950a85cbb8a7b3a778484171$__63c0ba8f4283336040518363ffffffff1660e01b8152600401610989929190610eb5565b60206040518083038186803b1580156109a157600080fd5b505af41580156109b5573d6000803e3d6000fd5b505050506040513d601f19601f820116820180604052508101906109d99190610bfc565b905080610a1b576040517f08c379a0000000000000000000000000000000000000000000000000000000008152600401610a1290610e3a565b60405180910390fd5b610a6d84600560003373ffffffffffffffffffffffffffffffffffffffff1673ffffffffffffffffffffffffffffffffffffffff16815260200190815260200160002054610b3a90919063ffffffff16565b600560003373ffffffffffffffffffffffffffffffffffffffff1673ffffffffffffffffffffffffffffffffffffffff16815260200190815260200160002081905550610ac584600454610b3a90919063ffffffff16565b6004819055503373ffffffffffffffffffffffffffffffffffffffff167f5e5e995ce3133561afceaa51a9a154d5db228cd7525d34df5185582c18d3df0985604051610b119190610e9a565b60405180910390a2600192505050919050565b60008183610b329190610efa565b905092915050565b60008183610b489190610faa565b905092915050565b600081359050610b5f81611267565b92915050565b600081519050610b748161127e565b92915050565b600081359050610b8981611295565b92915050565b600060208284031215610ba557610ba46110e9565b5b6000610bb384828501610b50565b91505092915050565b60008060408385031215610bd357610bd26110e9565b5b6000610be185828601610b50565b9250506020610bf285828601610b7a565b9150509250929050565b600060208284031215610c1257610c116110e9565b5b6000610c2084828501610b65565b91505092915050565b600060208284031215610c3f57610c3e6110e9565b5b6000610c4d84828501610b7a565b91505092915050565b610c5f81610fde565b82525050565b610c6e81610ff0565b82525050565b6000610c7f82610ede565b610c898185610ee9565b9350610c99818560208601611026565b610ca2816110ee565b840191505092915050565b6000610cba602283610ee9565b9150610cc5826110ff565b604082019050919050565b6000610cdd601483610ee9565b9150610ce88261114e565b602082019050919050565b6000610d00602083610ee9565b9150610d0b82611177565b602082019050919050565b6000610d23601183610ee9565b9150610d2e826111a0565b602082019050919050565b6000610d46602783610ee9565b9150610d51826111c9565b604082019050919050565b6000610d69602283610ee9565b9150610d7482611218565b604082019050919050565b610d888161101c565b82525050565b610d978161101c565b82525050565b6000602082019050610db26000830184610c65565b92915050565b60006020820190508181036000830152610dd28184610c74565b905092915050565b60006020820190508181036000830152610df381610cad565b9050919050565b60006020820190508181036000830152610e1381610cd0565b9050919050565b60006020820190508181036000830152610e3381610cf3565b9050919050565b60006020820190508181036000830152610e5381610d16565b9050919050565b60006020820190508181036000830152610e7381610d39565b9050919050565b60006020820190508181036000830152610e9381610d5c565b9050919050565b6000602082019050610eaf6000830184610d7f565b92915050565b6000604082019050610eca6000830185610d8e565b610ed76020830184610c56565b9392505050565b600081519050919050565b600082825260208201905092915050565b6000610f058261101c565b9150610f108361101c565b9250827fffffffffffffffffffffffffffffffffffffffffffffffffffffffffffffffff03821115610f4557610f4461108b565b5b828201905092915050565b6000610f5b8261101c565b9150610f668361101c565b9250817fffffffffffffffffffffffffffffffffffffffffffffffffffffffffffffffff0483118215151615610f9f57610f9e61108b565b5b828202905092915050565b6000610fb58261101c565b9150610fc08361101c565b925082821015610fd357610fd261108b565b5b828203905092915050565b6000610fe982610ffc565b9050919050565b60008115159050919050565b600073ffffffffffffffffffffffffffffffffffffffff82169050919050565b6000819050919050565b60005b83811015611044578082015181840152602081019050611029565b83811115611053576000848401525b50505050565b6000600282049050600182168061107157607f821691505b60208210811415611085576110846110ba565b5b50919050565b7f4e487b7100000000000000000000000000000000000000000000000000000000600052601160045260246000fd5b7f4e487b7100000000000000000000000000000000000000000000000000000000600052602260045260246000fd5b600080fd5b6000601f19601f8301169050919050565b7f596f7520646f206e6f7420686176652073756666696369656e742062616c616e60008201527f6365000000000000000000000000000000000000000000000000000000000000602082015250565b7f496e73756666696369656e742062616c616e6365000000000000000000000000600082015250565b7f436f6e74726163742062616c616e636520697320696e73756666696369656e74600082015250565b7f556e7375636365737366756c2053656e64000000000000000000000000000000600082015250565b7f4f6e6c7920746865206f776e65722063616e2064657374726f7920746865206360008201527f6f6e747261637400000000000000000000000000000000000000000000000000602082015250565b7f4f6e6c7920746865206f776e65722063616e206d696e74206e657720746f6b6560008201527f6e73000000000000000000000000000000000000000000000000000000000000602082015250565b61127081610fde565b811461127b57600080fd5b50565b61128781610ff0565b811461129257600080fd5b50565b61129e8161101c565b81146112a957600080fd5b5056fea26469706673582212205ee20f76ce4fedaaf9f53b50fc9504c3f7d1ef3d2cc9e54abb39850a57b0d62b64736f6c63430008070033",
					"opcodes": "PUSH1 0x80 PUSH1 0x40 MSTORE CALLVALUE DUP1 ISZERO PUSH3 0x11 JUMPI PUSH1 0x0 DUP1 REVERT JUMPDEST POP PUSH1 0x40 MLOAD DUP1 PUSH1 0x40 ADD PUSH1 0x40 MSTORE DUP1 PUSH1 0xC DUP2 MSTORE PUSH1 0x20 ADD PUSH32 0x437573746F6D20546F6B656E0000000000000000000000000000000000000000 DUP2 MSTORE POP PUSH1 0x1 SWAP1 DUP1 MLOAD SWAP1 PUSH1 0x20 ADD SWAP1 PUSH3 0x5F SWAP3 SWAP2 SWAP1 PUSH3 0x259 JUMP JUMPDEST POP PUSH1 0x40 MLOAD DUP1 PUSH1 0x40 ADD PUSH1 0x40 MSTORE DUP1 PUSH1 0x2 DUP2 MSTORE PUSH1 0x20 ADD PUSH32 0x4354000000000000000000000000000000000000000000000000000000000000 DUP2 MSTORE POP PUSH1 0x2 SWAP1 DUP1 MLOAD SWAP1 PUSH1 0x20 ADD SWAP1 PUSH3 0xAD SWAP3 SWAP2 SWAP1 PUSH3 0x259 JUMP JUMPDEST POP PUSH2 0x258 PUSH1 0x3 DUP2 SWAP1 SSTORE POP CALLER PUSH1 0x0 DUP1 PUSH2 0x100 EXP DUP2 SLOAD DUP2 PUSH20 0xFFFFFFFFFFFFFFFFFFFFFFFFFFFFFFFFFFFFFFFF MUL NOT AND SWAP1 DUP4 PUSH20 0xFFFFFFFFFFFFFFFFFFFFFFFFFFFFFFFFFFFFFFFF AND MUL OR SWAP1 SSTORE POP PUSH1 0x1 PUSH1 0x6 PUSH1 0x0 DUP1 PUSH1 0x0 SWAP1 SLOAD SWAP1 PUSH2 0x100 EXP SWAP1 DIV PUSH20 0xFFFFFFFFFFFFFFFFFFFFFFFFFFFFFFFFFFFFFFFF AND PUSH20 0xFFFFFFFFFFFFFFFFFFFFFFFFFFFFFFFFFFFFFFFF AND PUSH20 0xFFFFFFFFFFFFFFFFFFFFFFFFFFFFFFFFFFFFFFFF AND DUP2 MSTORE PUSH1 0x20 ADD SWAP1 DUP2 MSTORE PUSH1 0x20 ADD PUSH1 0x0 KECCAK256 PUSH1 0x0 PUSH2 0x100 EXP DUP2 SLOAD DUP2 PUSH1 0xFF MUL NOT AND SWAP1 DUP4 ISZERO ISZERO MUL OR SWAP1 SSTORE POP PUSH3 0xF4240 PUSH1 0x4 DUP2 SWAP1 SSTORE POP PUSH1 0x4 SLOAD PUSH1 0x5 PUSH1 0x0 DUP1 PUSH1 0x0 SWAP1 SLOAD SWAP1 PUSH2 0x100 EXP SWAP1 DIV PUSH20 0xFFFFFFFFFFFFFFFFFFFFFFFFFFFFFFFFFFFFFFFF AND PUSH20 0xFFFFFFFFFFFFFFFFFFFFFFFFFFFFFFFFFFFFFFFF AND PUSH20 0xFFFFFFFFFFFFFFFFFFFFFFFFFFFFFFFFFFFFFFFF AND DUP2 MSTORE PUSH1 0x20 ADD SWAP1 DUP2 MSTORE PUSH1 0x20 ADD PUSH1 0x0 KECCAK256 DUP2 SWAP1 SSTORE POP PUSH1 0x0 DUP1 SLOAD SWAP1 PUSH2 0x100 EXP SWAP1 DIV PUSH20 0xFFFFFFFFFFFFFFFFFFFFFFFFFFFFFFFFFFFFFFFF AND PUSH20 0xFFFFFFFFFFFFFFFFFFFFFFFFFFFFFFFFFFFFFFFF AND PUSH32 0xF6798A560793A54C3BCFE86A93CDE1E73087D944C0EA20544137D4121396885 PUSH1 0x4 SLOAD PUSH1 0x40 MLOAD PUSH3 0x24B SWAP2 SWAP1 PUSH3 0x31A JUMP JUMPDEST PUSH1 0x40 MLOAD DUP1 SWAP2 SUB SWAP1 LOG2 PUSH3 0x3A6 JUMP JUMPDEST DUP3 DUP1 SLOAD PUSH3 0x267 SWAP1 PUSH3 0x341 JUMP JUMPDEST SWAP1 PUSH1 0x0 MSTORE PUSH1 0x20 PUSH1 0x0 KECCAK256 SWAP1 PUSH1 0x1F ADD PUSH1 0x20 SWAP1 DIV DUP2 ADD SWAP3 DUP3 PUSH3 0x28B JUMPI PUSH1 0x0 DUP6 SSTORE PUSH3 0x2D7 JUMP JUMPDEST DUP3 PUSH1 0x1F LT PUSH3 0x2A6 JUMPI DUP1 MLOAD PUSH1 0xFF NOT AND DUP4 DUP1 ADD OR DUP6 SSTORE PUSH3 0x2D7 JUMP JUMPDEST DUP3 DUP1 ADD PUSH1 0x1 ADD DUP6 SSTORE DUP3 ISZERO PUSH3 0x2D7 JUMPI SWAP2 DUP3 ADD JUMPDEST DUP3 DUP2 GT ISZERO PUSH3 0x2D6 JUMPI DUP3 MLOAD DUP3 SSTORE SWAP2 PUSH1 0x20 ADD SWAP2 SWAP1 PUSH1 0x1 ADD SWAP1 PUSH3 0x2B9 JUMP JUMPDEST JUMPDEST POP SWAP1 POP PUSH3 0x2E6 SWAP2 SWAP1 PUSH3 0x2EA JUMP JUMPDEST POP SWAP1 JUMP JUMPDEST JUMPDEST DUP1 DUP3 GT ISZERO PUSH3 0x305 JUMPI PUSH1 0x0 DUP2 PUSH1 0x0 SWAP1 SSTORE POP PUSH1 0x1 ADD PUSH3 0x2EB JUMP JUMPDEST POP SWAP1 JUMP JUMPDEST PUSH3 0x314 DUP2 PUSH3 0x337 JUMP JUMPDEST DUP3 MSTORE POP POP JUMP JUMPDEST PUSH1 0x0 PUSH1 0x20 DUP3 ADD SWAP1 POP PUSH3 0x331 PUSH1 0x0 DUP4 ADD DUP5 PUSH3 0x309 JUMP JUMPDEST SWAP3 SWAP2 POP POP JUMP JUMPDEST PUSH1 0x0 DUP2 SWAP1 POP SWAP2 SWAP1 POP JUMP JUMPDEST PUSH1 0x0 PUSH1 0x2 DUP3 DIV SWAP1 POP PUSH1 0x1 DUP3 AND DUP1 PUSH3 0x35A JUMPI PUSH1 0x7F DUP3 AND SWAP2 POP JUMPDEST PUSH1 0x20 DUP3 LT DUP2 EQ ISZERO PUSH3 0x371 JUMPI PUSH3 0x370 PUSH3 0x377 JUMP JUMPDEST JUMPDEST POP SWAP2 SWAP1 POP JUMP JUMPDEST PUSH32 0x4E487B7100000000000000000000000000000000000000000000000000000000 PUSH1 0x0 MSTORE PUSH1 0x22 PUSH1 0x4 MSTORE PUSH1 0x24 PUSH1 0x0 REVERT JUMPDEST PUSH2 0x12E2 DUP1 PUSH3 0x3B6 PUSH1 0x0 CODECOPY PUSH1 0x0 RETURN INVALID PUSH1 0x80 PUSH1 0x40 MSTORE PUSH1 0x4 CALLDATASIZE LT PUSH2 0x8A JUMPI PUSH1 0x0 CALLDATALOAD PUSH1 0xE0 SHR DUP1 PUSH4 0x43D726D6 GT PUSH2 0x59 JUMPI DUP1 PUSH4 0x43D726D6 EQ PUSH2 0x14B JUMPI DUP1 PUSH4 0x70A08231 EQ PUSH2 0x162 JUMPI DUP1 PUSH4 0x98D5FDCA EQ PUSH2 0x19F JUMPI DUP1 PUSH4 0xA9059CBB EQ PUSH2 0x1CA JUMPI DUP1 PUSH4 0xE4849B32 EQ PUSH2 0x207 JUMPI PUSH2 0x8B JUMP JUMPDEST DUP1 PUSH4 0x15070401 EQ PUSH2 0x8D JUMPI DUP1 PUSH4 0x17D7DE7C EQ PUSH2 0xB8 JUMPI DUP1 PUSH4 0x18160DDD EQ PUSH2 0xE3 JUMPI DUP1 PUSH4 0x40C10F19 EQ PUSH2 0x10E JUMPI PUSH2 0x8B JUMP JUMPDEST JUMPDEST STOP JUMPDEST CALLVALUE DUP1 ISZERO PUSH2 0x99 JUMPI PUSH1 0x0 DUP1 REVERT JUMPDEST POP PUSH2 0xA2 PUSH2 0x237 JUMP JUMPDEST PUSH1 0x40 MLOAD PUSH2 0xAF SWAP2 SWAP1 PUSH2 0xDB8 JUMP JUMPDEST PUSH1 0x40 MLOAD DUP1 SWAP2 SUB SWAP1 RETURN JUMPDEST CALLVALUE DUP1 ISZERO PUSH2 0xC4 JUMPI PUSH1 0x0 DUP1 REVERT JUMPDEST POP PUSH2 0xCD PUSH2 0x2C9 JUMP JUMPDEST PUSH1 0x40 MLOAD PUSH2 0xDA SWAP2 SWAP1 PUSH2 0xDB8 JUMP JUMPDEST PUSH1 0x40 MLOAD DUP1 SWAP2 SUB SWAP1 RETURN JUMPDEST CALLVALUE DUP1 ISZERO PUSH2 0xEF JUMPI PUSH1 0x0 DUP1 REVERT JUMPDEST POP PUSH2 0xF8 PUSH2 0x35B JUMP JUMPDEST PUSH1 0x40 MLOAD PUSH2 0x105 SWAP2 SWAP1 PUSH2 0xE9A JUMP JUMPDEST PUSH1 0x40 MLOAD DUP1 SWAP2 SUB SWAP1 RETURN JUMPDEST CALLVALUE DUP1 ISZERO PUSH2 0x11A JUMPI PUSH1 0x0 DUP1 REVERT JUMPDEST POP PUSH2 0x135 PUSH1 0x4 DUP1 CALLDATASIZE SUB DUP2 ADD SWAP1 PUSH2 0x130 SWAP2 SWAP1 PUSH2 0xBBC JUMP JUMPDEST PUSH2 0x365 JUMP JUMPDEST PUSH1 0x40 MLOAD PUSH2 0x142 SWAP2 SWAP1 PUSH2 0xD9D JUMP JUMPDEST PUSH1 0x40 MLOAD DUP1 SWAP2 SUB SWAP1 RETURN JUMPDEST CALLVALUE DUP1 ISZERO PUSH2 0x157 JUMPI PUSH1 0x0 DUP1 REVERT JUMPDEST POP PUSH2 0x160 PUSH2 0x502 JUMP JUMPDEST STOP JUMPDEST CALLVALUE DUP1 ISZERO PUSH2 0x16E JUMPI PUSH1 0x0 DUP1 REVERT JUMPDEST POP PUSH2 0x189 PUSH1 0x4 DUP1 CALLDATASIZE SUB DUP2 ADD SWAP1 PUSH2 0x184 SWAP2 SWAP1 PUSH2 0xB8F JUMP JUMPDEST PUSH2 0x5CE JUMP JUMPDEST PUSH1 0x40 MLOAD PUSH2 0x196 SWAP2 SWAP1 PUSH2 0xE9A JUMP JUMPDEST PUSH1 0x40 MLOAD DUP1 SWAP2 SUB SWAP1 RETURN JUMPDEST CALLVALUE DUP1 ISZERO PUSH2 0x1AB JUMPI PUSH1 0x0 DUP1 REVERT JUMPDEST POP PUSH2 0x1B4 PUSH2 0x617 JUMP JUMPDEST PUSH1 0x40 MLOAD PUSH2 0x1C1 SWAP2 SWAP1 PUSH2 0xE9A JUMP JUMPDEST PUSH1 0x40 MLOAD DUP1 SWAP2 SUB SWAP1 RETURN JUMPDEST CALLVALUE DUP1 ISZERO PUSH2 0x1D6 JUMPI PUSH1 0x0 DUP1 REVERT JUMPDEST POP PUSH2 0x1F1 PUSH1 0x4 DUP1 CALLDATASIZE SUB DUP2 ADD SWAP1 PUSH2 0x1EC SWAP2 SWAP1 PUSH2 0xBBC JUMP JUMPDEST PUSH2 0x621 JUMP JUMPDEST PUSH1 0x40 MLOAD PUSH2 0x1FE SWAP2 SWAP1 PUSH2 0xD9D JUMP JUMPDEST PUSH1 0x40 MLOAD DUP1 SWAP2 SUB SWAP1 RETURN JUMPDEST PUSH2 0x221 PUSH1 0x4 DUP1 CALLDATASIZE SUB DUP2 ADD SWAP1 PUSH2 0x21C SWAP2 SWAP1 PUSH2 0xC29 JUMP JUMPDEST PUSH2 0x850 JUMP JUMPDEST PUSH1 0x40 MLOAD PUSH2 0x22E SWAP2 SWAP1 PUSH2 0xD9D JUMP JUMPDEST PUSH1 0x40 MLOAD DUP1 SWAP2 SUB SWAP1 RETURN JUMPDEST PUSH1 0x60 PUSH1 0x2 DUP1 SLOAD PUSH2 0x246 SWAP1 PUSH2 0x1059 JUMP JUMPDEST DUP1 PUSH1 0x1F ADD PUSH1 0x20 DUP1 SWAP2 DIV MUL PUSH1 0x20 ADD PUSH1 0x40 MLOAD SWAP1 DUP2 ADD PUSH1 0x40 MSTORE DUP1 SWAP3 SWAP2 SWAP1 DUP2 DUP2 MSTORE PUSH1 0x20 ADD DUP3 DUP1 SLOAD PUSH2 0x272 SWAP1 PUSH2 0x1059 JUMP JUMPDEST DUP1 ISZERO PUSH2 0x2BF JUMPI DUP1 PUSH1 0x1F LT PUSH2 0x294 JUMPI PUSH2 0x100 DUP1 DUP4 SLOAD DIV MUL DUP4 MSTORE SWAP2 PUSH1 0x20 ADD SWAP2 PUSH2 0x2BF JUMP JUMPDEST DUP3 ADD SWAP2 SWAP1 PUSH1 0x0 MSTORE PUSH1 0x20 PUSH1 0x0 KECCAK256 SWAP1 JUMPDEST DUP2 SLOAD DUP2 MSTORE SWAP1 PUSH1 0x1 ADD SWAP1 PUSH1 0x20 ADD DUP1 DUP4 GT PUSH2 0x2A2 JUMPI DUP3 SWAP1 SUB PUSH1 0x1F AND DUP3 ADD SWAP2 JUMPDEST POP POP POP POP POP SWAP1 POP SWAP1 JUMP JUMPDEST PUSH1 0x60 PUSH1 0x1 DUP1 SLOAD PUSH2 0x2D8 SWAP1 PUSH2 0x1059 JUMP JUMPDEST DUP1 PUSH1 0x1F ADD PUSH1 0x20 DUP1 SWAP2 DIV MUL PUSH1 0x20 ADD PUSH1 0x40 MLOAD SWAP1 DUP2 ADD PUSH1 0x40 MSTORE DUP1 SWAP3 SWAP2 SWAP1 DUP2 DUP2 MSTORE PUSH1 0x20 ADD DUP3 DUP1 SLOAD PUSH2 0x304 SWAP1 PUSH2 0x1059 JUMP JUMPDEST DUP1 ISZERO PUSH2 0x351 JUMPI DUP1 PUSH1 0x1F LT PUSH2 0x326 JUMPI PUSH2 0x100 DUP1 DUP4 SLOAD DIV MUL DUP4 MSTORE SWAP2 PUSH1 0x20 ADD SWAP2 PUSH2 0x351 JUMP JUMPDEST DUP3 ADD SWAP2 SWAP1 PUSH1 0x0 MSTORE PUSH1 0x20 PUSH1 0x0 KECCAK256 SWAP1 JUMPDEST DUP2 SLOAD DUP2 MSTORE SWAP1 PUSH1 0x1 ADD SWAP1 PUSH1 0x20 ADD DUP1 DUP4 GT PUSH2 0x334 JUMPI DUP3 SWAP1 SUB PUSH1 0x1F AND DUP3 ADD SWAP2 JUMPDEST POP POP POP POP POP SWAP1 POP SWAP1 JUMP JUMPDEST PUSH1 0x0 PUSH1 0x4 SLOAD SWAP1 POP SWAP1 JUMP JUMPDEST PUSH1 0x0 PUSH1 0x1 ISZERO ISZERO PUSH1 0x6 PUSH1 0x0 CALLER PUSH20 0xFFFFFFFFFFFFFFFFFFFFFFFFFFFFFFFFFFFFFFFF AND PUSH20 0xFFFFFFFFFFFFFFFFFFFFFFFFFFFFFFFFFFFFFFFF AND DUP2 MSTORE PUSH1 0x20 ADD SWAP1 DUP2 MSTORE PUSH1 0x20 ADD PUSH1 0x0 KECCAK256 PUSH1 0x0 SWAP1 SLOAD SWAP1 PUSH2 0x100 EXP SWAP1 DIV PUSH1 0xFF AND ISZERO ISZERO EQ PUSH2 0x3FA JUMPI PUSH1 0x40 MLOAD PUSH32 0x8C379A000000000000000000000000000000000000000000000000000000000 DUP2 MSTORE PUSH1 0x4 ADD PUSH2 0x3F1 SWAP1 PUSH2 0xE7A JUMP JUMPDEST PUSH1 0x40 MLOAD DUP1 SWAP2 SUB SWAP1 REVERT JUMPDEST PUSH2 0x40F DUP3 PUSH1 0x4 SLOAD PUSH2 0xB24 SWAP1 SWAP2 SWAP1 PUSH4 0xFFFFFFFF AND JUMP JUMPDEST PUSH1 0x4 DUP2 SWAP1 SSTORE POP PUSH2 0x467 DUP3 PUSH1 0x5 PUSH1 0x0 DUP7 PUSH20 0xFFFFFFFFFFFFFFFFFFFFFFFFFFFFFFFFFFFFFFFF AND PUSH20 0xFFFFFFFFFFFFFFFFFFFFFFFFFFFFFFFFFFFFFFFF AND DUP2 MSTORE PUSH1 0x20 ADD SWAP1 DUP2 MSTORE PUSH1 0x20 ADD PUSH1 0x0 KECCAK256 SLOAD PUSH2 0xB24 SWAP1 SWAP2 SWAP1 PUSH4 0xFFFFFFFF AND JUMP JUMPDEST PUSH1 0x5 PUSH1 0x0 DUP6 PUSH20 0xFFFFFFFFFFFFFFFFFFFFFFFFFFFFFFFFFFFFFFFF AND PUSH20 0xFFFFFFFFFFFFFFFFFFFFFFFFFFFFFFFFFFFFFFFF AND DUP2 MSTORE PUSH1 0x20 ADD SWAP1 DUP2 MSTORE PUSH1 0x20 ADD PUSH1 0x0 KECCAK256 DUP2 SWAP1 SSTORE POP DUP3 PUSH20 0xFFFFFFFFFFFFFFFFFFFFFFFFFFFFFFFFFFFFFFFF AND PUSH32 0xF6798A560793A54C3BCFE86A93CDE1E73087D944C0EA20544137D4121396885 DUP4 PUSH1 0x40 MLOAD PUSH2 0x4F0 SWAP2 SWAP1 PUSH2 0xE9A JUMP JUMPDEST PUSH1 0x40 MLOAD DUP1 SWAP2 SUB SWAP1 LOG2 PUSH1 0x1 SWAP1 POP SWAP3 SWAP2 POP POP JUMP JUMPDEST PUSH1 0x1 ISZERO ISZERO PUSH1 0x6 PUSH1 0x0 CALLER PUSH20 0xFFFFFFFFFFFFFFFFFFFFFFFFFFFFFFFFFFFFFFFF AND PUSH20 0xFFFFFFFFFFFFFFFFFFFFFFFFFFFFFFFFFFFFFFFF AND DUP2 MSTORE PUSH1 0x20 ADD SWAP1 DUP2 MSTORE PUSH1 0x20 ADD PUSH1 0x0 KECCAK256 PUSH1 0x0 SWAP1 SLOAD SWAP1 PUSH2 0x100 EXP SWAP1 DIV PUSH1 0xFF AND ISZERO ISZERO EQ PUSH2 0x595 JUMPI PUSH1 0x40 MLOAD PUSH32 0x8C379A000000000000000000000000000000000000000000000000000000000 DUP2 MSTORE PUSH1 0x4 ADD PUSH2 0x58C SWAP1 PUSH2 0xE5A JUMP JUMPDEST PUSH1 0x40 MLOAD DUP1 SWAP2 SUB SWAP1 REVERT JUMPDEST PUSH1 0x0 DUP1 SLOAD SWAP1 PUSH2 0x100 EXP SWAP1 DIV PUSH20 0xFFFFFFFFFFFFFFFFFFFFFFFFFFFFFFFFFFFFFFFF AND PUSH20 0xFFFFFFFFFFFFFFFFFFFFFFFFFFFFFFFFFFFFFFFF AND SELFDESTRUCT JUMPDEST PUSH1 0x0 PUSH1 0x5 PUSH1 0x0 DUP4 PUSH20 0xFFFFFFFFFFFFFFFFFFFFFFFFFFFFFFFFFFFFFFFF AND PUSH20 0xFFFFFFFFFFFFFFFFFFFFFFFFFFFFFFFFFFFFFFFF AND DUP2 MSTORE PUSH1 0x20 ADD SWAP1 DUP2 MSTORE PUSH1 0x20 ADD PUSH1 0x0 KECCAK256 SLOAD SWAP1 POP SWAP2 SWAP1 POP JUMP JUMPDEST PUSH1 0x0 PUSH1 0x3 SLOAD SWAP1 POP SWAP1 JUMP JUMPDEST PUSH1 0x0 DUP1 PUSH2 0x676 DUP4 PUSH1 0x5 PUSH1 0x0 CALLER PUSH20 0xFFFFFFFFFFFFFFFFFFFFFFFFFFFFFFFFFFFFFFFF AND PUSH20 0xFFFFFFFFFFFFFFFFFFFFFFFFFFFFFFFFFFFFFFFF AND DUP2 MSTORE PUSH1 0x20 ADD SWAP1 DUP2 MSTORE PUSH1 0x20 ADD PUSH1 0x0 KECCAK256 SLOAD PUSH2 0xB3A SWAP1 SWAP2 SWAP1 PUSH4 0xFFFFFFFF AND JUMP JUMPDEST LT ISZERO PUSH2 0x6B7 JUMPI PUSH1 0x40 MLOAD PUSH32 0x8C379A000000000000000000000000000000000000000000000000000000000 DUP2 MSTORE PUSH1 0x4 ADD PUSH2 0x6AE SWAP1 PUSH2 0xDDA JUMP JUMPDEST PUSH1 0x40 MLOAD DUP1 SWAP2 SUB SWAP1 REVERT JUMPDEST PUSH2 0x709 DUP3 PUSH1 0x5 PUSH1 0x0 CALLER PUSH20 0xFFFFFFFFFFFFFFFFFFFFFFFFFFFFFFFFFFFFFFFF AND PUSH20 0xFFFFFFFFFFFFFFFFFFFFFFFFFFFFFFFFFFFFFFFF AND DUP2 MSTORE PUSH1 0x20 ADD SWAP1 DUP2 MSTORE PUSH1 0x20 ADD PUSH1 0x0 KECCAK256 SLOAD PUSH2 0xB3A SWAP1 SWAP2 SWAP1 PUSH4 0xFFFFFFFF AND JUMP JUMPDEST PUSH1 0x5 PUSH1 0x0 CALLER PUSH20 0xFFFFFFFFFFFFFFFFFFFFFFFFFFFFFFFFFFFFFFFF AND PUSH20 0xFFFFFFFFFFFFFFFFFFFFFFFFFFFFFFFFFFFFFFFF AND DUP2 MSTORE PUSH1 0x20 ADD SWAP1 DUP2 MSTORE PUSH1 0x20 ADD PUSH1 0x0 KECCAK256 DUP2 SWAP1 SSTORE POP PUSH2 0x79E DUP3 PUSH1 0x5 PUSH1 0x0 DUP7 PUSH20 0xFFFFFFFFFFFFFFFFFFFFFFFFFFFFFFFFFFFFFFFF AND PUSH20 0xFFFFFFFFFFFFFFFFFFFFFFFFFFFFFFFFFFFFFFFF AND DUP2 MSTORE PUSH1 0x20 ADD SWAP1 DUP2 MSTORE PUSH1 0x20 ADD PUSH1 0x0 KECCAK256 SLOAD PUSH2 0xB24 SWAP1 SWAP2 SWAP1 PUSH4 0xFFFFFFFF AND JUMP JUMPDEST PUSH1 0x5 PUSH1 0x0 DUP6 PUSH20 0xFFFFFFFFFFFFFFFFFFFFFFFFFFFFFFFFFFFFFFFF AND PUSH20 0xFFFFFFFFFFFFFFFFFFFFFFFFFFFFFFFFFFFFFFFF AND DUP2 MSTORE PUSH1 0x20 ADD SWAP1 DUP2 MSTORE PUSH1 0x20 ADD PUSH1 0x0 KECCAK256 DUP2 SWAP1 SSTORE POP DUP3 PUSH20 0xFFFFFFFFFFFFFFFFFFFFFFFFFFFFFFFFFFFFFFFF AND CALLER PUSH20 0xFFFFFFFFFFFFFFFFFFFFFFFFFFFFFFFFFFFFFFFF AND PUSH32 0xDDF252AD1BE2C89B69C2B068FC378DAA952BA7F163C4A11628F55A4DF523B3EF DUP5 PUSH1 0x40 MLOAD PUSH2 0x83E SWAP2 SWAP1 PUSH2 0xE9A JUMP JUMPDEST PUSH1 0x40 MLOAD DUP1 SWAP2 SUB SWAP1 LOG3 PUSH1 0x1 SWAP1 POP SWAP3 SWAP2 POP POP JUMP JUMPDEST PUSH1 0x0 DUP1 PUSH2 0x8A5 DUP4 PUSH1 0x5 PUSH1 0x0 CALLER PUSH20 0xFFFFFFFFFFFFFFFFFFFFFFFFFFFFFFFFFFFFFFFF AND PUSH20 0xFFFFFFFFFFFFFFFFFFFFFFFFFFFFFFFFFFFFFFFF AND DUP2 MSTORE PUSH1 0x20 ADD SWAP1 DUP2 MSTORE PUSH1 0x20 ADD PUSH1 0x0 KECCAK256 SLOAD PUSH2 0xB3A SWAP1 SWAP2 SWAP1 PUSH4 0xFFFFFFFF AND JUMP JUMPDEST LT ISZERO PUSH2 0x8E6 JUMPI PUSH1 0x40 MLOAD PUSH32 0x8C379A000000000000000000000000000000000000000000000000000000000 DUP2 MSTORE PUSH1 0x4 ADD PUSH2 0x8DD SWAP1 PUSH2 0xDFA JUMP JUMPDEST PUSH1 0x40 MLOAD DUP1 SWAP2 SUB SWAP1 REVERT JUMPDEST PUSH1 0x0 PUSH2 0x258 DUP4 PUSH2 0x8F6 SWAP2 SWAP1 PUSH2 0xF50 JUMP JUMPDEST SWAP1 POP PUSH1 0x0 PUSH2 0x90D DUP3 SELFBALANCE PUSH2 0xB3A SWAP1 SWAP2 SWAP1 PUSH4 0xFFFFFFFF AND JUMP JUMPDEST LT ISZERO PUSH2 0x94E JUMPI PUSH1 0x40 MLOAD PUSH32 0x8C379A000000000000000000000000000000000000000000000000000000000 DUP2 MSTORE PUSH1 0x4 ADD PUSH2 0x945 SWAP1 PUSH2 0xE1A JUMP JUMPDEST PUSH1 0x40 MLOAD DUP1 SWAP2 SUB SWAP1 REVERT JUMPDEST PUSH1 0x0 PUSH20 0x0 PUSH4 0xC0BA8F42 DUP4 CALLER PUSH1 0x40 MLOAD DUP4 PUSH4 0xFFFFFFFF AND PUSH1 0xE0 SHL DUP2 MSTORE PUSH1 0x4 ADD PUSH2 0x989 SWAP3 SWAP2 SWAP1 PUSH2 0xEB5 JUMP JUMPDEST PUSH1 0x20 PUSH1 0x40 MLOAD DUP1 DUP4 SUB DUP2 DUP7 DUP1 EXTCODESIZE ISZERO DUP1 ISZERO PUSH2 0x9A1 JUMPI PUSH1 0x0 DUP1 REVERT JUMPDEST POP GAS DELEGATECALL ISZERO DUP1 ISZERO PUSH2 0x9B5 JUMPI RETURNDATASIZE PUSH1 0x0 DUP1 RETURNDATACOPY RETURNDATASIZE PUSH1 0x0 REVERT JUMPDEST POP POP POP POP PUSH1 0x40 MLOAD RETURNDATASIZE PUSH1 0x1F NOT PUSH1 0x1F DUP3 ADD AND DUP3 ADD DUP1 PUSH1 0x40 MSTORE POP DUP2 ADD SWAP1 PUSH2 0x9D9 SWAP2 SWAP1 PUSH2 0xBFC JUMP JUMPDEST SWAP1 POP DUP1 PUSH2 0xA1B JUMPI PUSH1 0x40 MLOAD PUSH32 0x8C379A000000000000000000000000000000000000000000000000000000000 DUP2 MSTORE PUSH1 0x4 ADD PUSH2 0xA12 SWAP1 PUSH2 0xE3A JUMP JUMPDEST PUSH1 0x40 MLOAD DUP1 SWAP2 SUB SWAP1 REVERT JUMPDEST PUSH2 0xA6D DUP5 PUSH1 0x5 PUSH1 0x0 CALLER PUSH20 0xFFFFFFFFFFFFFFFFFFFFFFFFFFFFFFFFFFFFFFFF AND PUSH20 0xFFFFFFFFFFFFFFFFFFFFFFFFFFFFFFFFFFFFFFFF AND DUP2 MSTORE PUSH1 0x20 ADD SWAP1 DUP2 MSTORE PUSH1 0x20 ADD PUSH1 0x0 KECCAK256 SLOAD PUSH2 0xB3A SWAP1 SWAP2 SWAP1 PUSH4 0xFFFFFFFF AND JUMP JUMPDEST PUSH1 0x5 PUSH1 0x0 CALLER PUSH20 0xFFFFFFFFFFFFFFFFFFFFFFFFFFFFFFFFFFFFFFFF AND PUSH20 0xFFFFFFFFFFFFFFFFFFFFFFFFFFFFFFFFFFFFFFFF AND DUP2 MSTORE PUSH1 0x20 ADD SWAP1 DUP2 MSTORE PUSH1 0x20 ADD PUSH1 0x0 KECCAK256 DUP2 SWAP1 SSTORE POP PUSH2 0xAC5 DUP5 PUSH1 0x4 SLOAD PUSH2 0xB3A SWAP1 SWAP2 SWAP1 PUSH4 0xFFFFFFFF AND JUMP JUMPDEST PUSH1 0x4 DUP2 SWAP1 SSTORE POP CALLER PUSH20 0xFFFFFFFFFFFFFFFFFFFFFFFFFFFFFFFFFFFFFFFF AND PUSH32 0x5E5E995CE3133561AFCEAA51A9A154D5DB228CD7525D34DF5185582C18D3DF09 DUP6 PUSH1 0x40 MLOAD PUSH2 0xB11 SWAP2 SWAP1 PUSH2 0xE9A JUMP JUMPDEST PUSH1 0x40 MLOAD DUP1 SWAP2 SUB SWAP1 LOG2 PUSH1 0x1 SWAP3 POP POP POP SWAP2 SWAP1 POP JUMP JUMPDEST PUSH1 0x0 DUP2 DUP4 PUSH2 0xB32 SWAP2 SWAP1 PUSH2 0xEFA JUMP JUMPDEST SWAP1 POP SWAP3 SWAP2 POP POP JUMP JUMPDEST PUSH1 0x0 DUP2 DUP4 PUSH2 0xB48 SWAP2 SWAP1 PUSH2 0xFAA JUMP JUMPDEST SWAP1 POP SWAP3 SWAP2 POP POP JUMP JUMPDEST PUSH1 0x0 DUP2 CALLDATALOAD SWAP1 POP PUSH2 0xB5F DUP2 PUSH2 0x1267 JUMP JUMPDEST SWAP3 SWAP2 POP POP JUMP JUMPDEST PUSH1 0x0 DUP2 MLOAD SWAP1 POP PUSH2 0xB74 DUP2 PUSH2 0x127E JUMP JUMPDEST SWAP3 SWAP2 POP POP JUMP JUMPDEST PUSH1 0x0 DUP2 CALLDATALOAD SWAP1 POP PUSH2 0xB89 DUP2 PUSH2 0x1295 JUMP JUMPDEST SWAP3 SWAP2 POP POP JUMP JUMPDEST PUSH1 0x0 PUSH1 0x20 DUP3 DUP5 SUB SLT ISZERO PUSH2 0xBA5 JUMPI PUSH2 0xBA4 PUSH2 0x10E9 JUMP JUMPDEST JUMPDEST PUSH1 0x0 PUSH2 0xBB3 DUP5 DUP3 DUP6 ADD PUSH2 0xB50 JUMP JUMPDEST SWAP2 POP POP SWAP3 SWAP2 POP POP JUMP JUMPDEST PUSH1 0x0 DUP1 PUSH1 0x40 DUP4 DUP6 SUB SLT ISZERO PUSH2 0xBD3 JUMPI PUSH2 0xBD2 PUSH2 0x10E9 JUMP JUMPDEST JUMPDEST PUSH1 0x0 PUSH2 0xBE1 DUP6 DUP3 DUP7 ADD PUSH2 0xB50 JUMP JUMPDEST SWAP3 POP POP PUSH1 0x20 PUSH2 0xBF2 DUP6 DUP3 DUP7 ADD PUSH2 0xB7A JUMP JUMPDEST SWAP2 POP POP SWAP3 POP SWAP3 SWAP1 POP JUMP JUMPDEST PUSH1 0x0 PUSH1 0x20 DUP3 DUP5 SUB SLT ISZERO PUSH2 0xC12 JUMPI PUSH2 0xC11 PUSH2 0x10E9 JUMP JUMPDEST JUMPDEST PUSH1 0x0 PUSH2 0xC20 DUP5 DUP3 DUP6 ADD PUSH2 0xB65 JUMP JUMPDEST SWAP2 POP POP SWAP3 SWAP2 POP POP JUMP JUMPDEST PUSH1 0x0 PUSH1 0x20 DUP3 DUP5 SUB SLT ISZERO PUSH2 0xC3F JUMPI PUSH2 0xC3E PUSH2 0x10E9 JUMP JUMPDEST JUMPDEST PUSH1 0x0 PUSH2 0xC4D DUP5 DUP3 DUP6 ADD PUSH2 0xB7A JUMP JUMPDEST SWAP2 POP POP SWAP3 SWAP2 POP POP JUMP JUMPDEST PUSH2 0xC5F DUP2 PUSH2 0xFDE JUMP JUMPDEST DUP3 MSTORE POP POP JUMP JUMPDEST PUSH2 0xC6E DUP2 PUSH2 0xFF0 JUMP JUMPDEST DUP3 MSTORE POP POP JUMP JUMPDEST PUSH1 0x0 PUSH2 0xC7F DUP3 PUSH2 0xEDE JUMP JUMPDEST PUSH2 0xC89 DUP2 DUP6 PUSH2 0xEE9 JUMP JUMPDEST SWAP4 POP PUSH2 0xC99 DUP2 DUP6 PUSH1 0x20 DUP7 ADD PUSH2 0x1026 JUMP JUMPDEST PUSH2 0xCA2 DUP2 PUSH2 0x10EE JUMP JUMPDEST DUP5 ADD SWAP2 POP POP SWAP3 SWAP2 POP POP JUMP JUMPDEST PUSH1 0x0 PUSH2 0xCBA PUSH1 0x22 DUP4 PUSH2 0xEE9 JUMP JUMPDEST SWAP2 POP PUSH2 0xCC5 DUP3 PUSH2 0x10FF JUMP JUMPDEST PUSH1 0x40 DUP3 ADD SWAP1 POP SWAP2 SWAP1 POP JUMP JUMPDEST PUSH1 0x0 PUSH2 0xCDD PUSH1 0x14 DUP4 PUSH2 0xEE9 JUMP JUMPDEST SWAP2 POP PUSH2 0xCE8 DUP3 PUSH2 0x114E JUMP JUMPDEST PUSH1 0x20 DUP3 ADD SWAP1 POP SWAP2 SWAP1 POP JUMP JUMPDEST PUSH1 0x0 PUSH2 0xD00 PUSH1 0x20 DUP4 PUSH2 0xEE9 JUMP JUMPDEST SWAP2 POP PUSH2 0xD0B DUP3 PUSH2 0x1177 JUMP JUMPDEST PUSH1 0x20 DUP3 ADD SWAP1 POP SWAP2 SWAP1 POP JUMP JUMPDEST PUSH1 0x0 PUSH2 0xD23 PUSH1 0x11 DUP4 PUSH2 0xEE9 JUMP JUMPDEST SWAP2 POP PUSH2 0xD2E DUP3 PUSH2 0x11A0 JUMP JUMPDEST PUSH1 0x20 DUP3 ADD SWAP1 POP SWAP2 SWAP1 POP JUMP JUMPDEST PUSH1 0x0 PUSH2 0xD46 PUSH1 0x27 DUP4 PUSH2 0xEE9 JUMP JUMPDEST SWAP2 POP PUSH2 0xD51 DUP3 PUSH2 0x11C9 JUMP JUMPDEST PUSH1 0x40 DUP3 ADD SWAP1 POP SWAP2 SWAP1 POP JUMP JUMPDEST PUSH1 0x0 PUSH2 0xD69 PUSH1 0x22 DUP4 PUSH2 0xEE9 JUMP JUMPDEST SWAP2 POP PUSH2 0xD74 DUP3 PUSH2 0x1218 JUMP JUMPDEST PUSH1 0x40 DUP3 ADD SWAP1 POP SWAP2 SWAP1 POP JUMP JUMPDEST PUSH2 0xD88 DUP2 PUSH2 0x101C JUMP JUMPDEST DUP3 MSTORE POP POP JUMP JUMPDEST PUSH2 0xD97 DUP2 PUSH2 0x101C JUMP JUMPDEST DUP3 MSTORE POP POP JUMP JUMPDEST PUSH1 0x0 PUSH1 0x20 DUP3 ADD SWAP1 POP PUSH2 0xDB2 PUSH1 0x0 DUP4 ADD DUP5 PUSH2 0xC65 JUMP JUMPDEST SWAP3 SWAP2 POP POP JUMP JUMPDEST PUSH1 0x0 PUSH1 0x20 DUP3 ADD SWAP1 POP DUP2 DUP2 SUB PUSH1 0x0 DUP4 ADD MSTORE PUSH2 0xDD2 DUP2 DUP5 PUSH2 0xC74 JUMP JUMPDEST SWAP1 POP SWAP3 SWAP2 POP POP JUMP JUMPDEST PUSH1 0x0 PUSH1 0x20 DUP3 ADD SWAP1 POP DUP2 DUP2 SUB PUSH1 0x0 DUP4 ADD MSTORE PUSH2 0xDF3 DUP2 PUSH2 0xCAD JUMP JUMPDEST SWAP1 POP SWAP2 SWAP1 POP JUMP JUMPDEST PUSH1 0x0 PUSH1 0x20 DUP3 ADD SWAP1 POP DUP2 DUP2 SUB PUSH1 0x0 DUP4 ADD MSTORE PUSH2 0xE13 DUP2 PUSH2 0xCD0 JUMP JUMPDEST SWAP1 POP SWAP2 SWAP1 POP JUMP JUMPDEST PUSH1 0x0 PUSH1 0x20 DUP3 ADD SWAP1 POP DUP2 DUP2 SUB PUSH1 0x0 DUP4 ADD MSTORE PUSH2 0xE33 DUP2 PUSH2 0xCF3 JUMP JUMPDEST SWAP1 POP SWAP2 SWAP1 POP JUMP JUMPDEST PUSH1 0x0 PUSH1 0x20 DUP3 ADD SWAP1 POP DUP2 DUP2 SUB PUSH1 0x0 DUP4 ADD MSTORE PUSH2 0xE53 DUP2 PUSH2 0xD16 JUMP JUMPDEST SWAP1 POP SWAP2 SWAP1 POP JUMP JUMPDEST PUSH1 0x0 PUSH1 0x20 DUP3 ADD SWAP1 POP DUP2 DUP2 SUB PUSH1 0x0 DUP4 ADD MSTORE PUSH2 0xE73 DUP2 PUSH2 0xD39 JUMP JUMPDEST SWAP1 POP SWAP2 SWAP1 POP JUMP JUMPDEST PUSH1 0x0 PUSH1 0x20 DUP3 ADD SWAP1 POP DUP2 DUP2 SUB PUSH1 0x0 DUP4 ADD MSTORE PUSH2 0xE93 DUP2 PUSH2 0xD5C JUMP JUMPDEST SWAP1 POP SWAP2 SWAP1 POP JUMP JUMPDEST PUSH1 0x0 PUSH1 0x20 DUP3 ADD SWAP1 POP PUSH2 0xEAF PUSH1 0x0 DUP4 ADD DUP5 PUSH2 0xD7F JUMP JUMPDEST SWAP3 SWAP2 POP POP JUMP JUMPDEST PUSH1 0x0 PUSH1 0x40 DUP3 ADD SWAP1 POP PUSH2 0xECA PUSH1 0x0 DUP4 ADD DUP6 PUSH2 0xD8E JUMP JUMPDEST PUSH2 0xED7 PUSH1 0x20 DUP4 ADD DUP5 PUSH2 0xC56 JUMP JUMPDEST SWAP4 SWAP3 POP POP POP JUMP JUMPDEST PUSH1 0x0 DUP2 MLOAD SWAP1 POP SWAP2 SWAP1 POP JUMP JUMPDEST PUSH1 0x0 DUP3 DUP3 MSTORE PUSH1 0x20 DUP3 ADD SWAP1 POP SWAP3 SWAP2 POP POP JUMP JUMPDEST PUSH1 0x0 PUSH2 0xF05 DUP3 PUSH2 0x101C JUMP JUMPDEST SWAP2 POP PUSH2 0xF10 DUP4 PUSH2 0x101C JUMP JUMPDEST SWAP3 POP DUP3 PUSH32 0xFFFFFFFFFFFFFFFFFFFFFFFFFFFFFFFFFFFFFFFFFFFFFFFFFFFFFFFFFFFFFFFF SUB DUP3 GT ISZERO PUSH2 0xF45 JUMPI PUSH2 0xF44 PUSH2 0x108B JUMP JUMPDEST JUMPDEST DUP3 DUP3 ADD SWAP1 POP SWAP3 SWAP2 POP POP JUMP JUMPDEST PUSH1 0x0 PUSH2 0xF5B DUP3 PUSH2 0x101C JUMP JUMPDEST SWAP2 POP PUSH2 0xF66 DUP4 PUSH2 0x101C JUMP JUMPDEST SWAP3 POP DUP2 PUSH32 0xFFFFFFFFFFFFFFFFFFFFFFFFFFFFFFFFFFFFFFFFFFFFFFFFFFFFFFFFFFFFFFFF DIV DUP4 GT DUP3 ISZERO ISZERO AND ISZERO PUSH2 0xF9F JUMPI PUSH2 0xF9E PUSH2 0x108B JUMP JUMPDEST JUMPDEST DUP3 DUP3 MUL SWAP1 POP SWAP3 SWAP2 POP POP JUMP JUMPDEST PUSH1 0x0 PUSH2 0xFB5 DUP3 PUSH2 0x101C JUMP JUMPDEST SWAP2 POP PUSH2 0xFC0 DUP4 PUSH2 0x101C JUMP JUMPDEST SWAP3 POP DUP3 DUP3 LT ISZERO PUSH2 0xFD3 JUMPI PUSH2 0xFD2 PUSH2 0x108B JUMP JUMPDEST JUMPDEST DUP3 DUP3 SUB SWAP1 POP SWAP3 SWAP2 POP POP JUMP JUMPDEST PUSH1 0x0 PUSH2 0xFE9 DUP3 PUSH2 0xFFC JUMP JUMPDEST SWAP1 POP SWAP2 SWAP1 POP JUMP JUMPDEST PUSH1 0x0 DUP2 ISZERO ISZERO SWAP1 POP SWAP2 SWAP1 POP JUMP JUMPDEST PUSH1 0x0 PUSH20 0xFFFFFFFFFFFFFFFFFFFFFFFFFFFFFFFFFFFFFFFF DUP3 AND SWAP1 POP SWAP2 SWAP1 POP JUMP JUMPDEST PUSH1 0x0 DUP2 SWAP1 POP SWAP2 SWAP1 POP JUMP JUMPDEST PUSH1 0x0 JUMPDEST DUP4 DUP2 LT ISZERO PUSH2 0x1044 JUMPI DUP1 DUP3 ADD MLOAD DUP2 DUP5 ADD MSTORE PUSH1 0x20 DUP2 ADD SWAP1 POP PUSH2 0x1029 JUMP JUMPDEST DUP4 DUP2 GT ISZERO PUSH2 0x1053 JUMPI PUSH1 0x0 DUP5 DUP5 ADD MSTORE JUMPDEST POP POP POP POP JUMP JUMPDEST PUSH1 0x0 PUSH1 0x2 DUP3 DIV SWAP1 POP PUSH1 0x1 DUP3 AND DUP1 PUSH2 0x1071 JUMPI PUSH1 0x7F DUP3 AND SWAP2 POP JUMPDEST PUSH1 0x20 DUP3 LT DUP2 EQ ISZERO PUSH2 0x1085 JUMPI PUSH2 0x1084 PUSH2 0x10BA JUMP JUMPDEST JUMPDEST POP SWAP2 SWAP1 POP JUMP JUMPDEST PUSH32 0x4E487B7100000000000000000000000000000000000000000000000000000000 PUSH1 0x0 MSTORE PUSH1 0x11 PUSH1 0x4 MSTORE PUSH1 0x24 PUSH1 0x0 REVERT JUMPDEST PUSH32 0x4E487B7100000000000000000000000000000000000000000000000000000000 PUSH1 0x0 MSTORE PUSH1 0x22 PUSH1 0x4 MSTORE PUSH1 0x24 PUSH1 0x0 REVERT JUMPDEST PUSH1 0x0 DUP1 REVERT JUMPDEST PUSH1 0x0 PUSH1 0x1F NOT PUSH1 0x1F DUP4 ADD AND SWAP1 POP SWAP2 SWAP1 POP JUMP JUMPDEST PUSH32 0x596F7520646F206E6F7420686176652073756666696369656E742062616C616E PUSH1 0x0 DUP3 ADD MSTORE PUSH32 0x6365000000000000000000000000000000000000000000000000000000000000 PUSH1 0x20 DUP3 ADD MSTORE POP JUMP JUMPDEST PUSH32 0x496E73756666696369656E742062616C616E6365000000000000000000000000 PUSH1 0x0 DUP3 ADD MSTORE POP JUMP JUMPDEST PUSH32 0x436F6E74726163742062616C616E636520697320696E73756666696369656E74 PUSH1 0x0 DUP3 ADD MSTORE POP JUMP JUMPDEST PUSH32 0x556E7375636365737366756C2053656E64000000000000000000000000000000 PUSH1 0x0 DUP3 ADD MSTORE POP JUMP JUMPDEST PUSH32 0x4F6E6C7920746865206F776E65722063616E2064657374726F79207468652063 PUSH1 0x0 DUP3 ADD MSTORE PUSH32 0x6F6E747261637400000000000000000000000000000000000000000000000000 PUSH1 0x20 DUP3 ADD MSTORE POP JUMP JUMPDEST PUSH32 0x4F6E6C7920746865206F776E65722063616E206D696E74206E657720746F6B65 PUSH1 0x0 DUP3 ADD MSTORE PUSH32 0x6E73000000000000000000000000000000000000000000000000000000000000 PUSH1 0x20 DUP3 ADD MSTORE POP JUMP JUMPDEST PUSH2 0x1270 DUP2 PUSH2 0xFDE JUMP JUMPDEST DUP2 EQ PUSH2 0x127B JUMPI PUSH1 0x0 DUP1 REVERT JUMPDEST POP JUMP JUMPDEST PUSH2 0x1287 DUP2 PUSH2 0xFF0 JUMP JUMPDEST DUP2 EQ PUSH2 0x1292 JUMPI PUSH1 0x0 DUP1 REVERT JUMPDEST POP JUMP JUMPDEST PUSH2 0x129E DUP2 PUSH2 0x101C JUMP JUMPDEST DUP2 EQ PUSH2 0x12A9 JUMPI PUSH1 0x0 DUP1 REVERT JUMPDEST POP JUMP INVALID LOG2 PUSH5 0x6970667358 0x22 SLT KECCAK256 0x5E 0xE2 0xF PUSH23 0xCE4FEDAAF9F53B50FC9504C3F7D1EF3D2CC9E54ABB3985 EXP JUMPI 0xB0 0xD6 0x2B PUSH5 0x736F6C6343 STOP ADDMOD SMOD STOP CALLER "
				},
				"gasEstimates": {
					"creation": {
						"codeDepositCost": "966800",
						"executionCost": "infinite",
						"totalCost": "infinite"
					},
					"external": {
						"": "174",
						"balanceOf(address)": "2863",
						"close()": "32137",
						"getName()": "infinite",
						"getPrice()": "2481",
						"getSymbol()": "infinite",
						"mint(address,uint256)": "infinite",
						"sell(uint256)": "infinite",
						"totalSupply()": "2482",
						"transfer(address,uint256)": "infinite"
					}
				},
				"methodIdentifiers": {
					"balanceOf(address)": "70a08231",
					"close()": "43d726d6",
					"getName()": "17d7de7c",
					"getPrice()": "98d5fdca",
					"getSymbol()": "15070401",
					"mint(address,uint256)": "40c10f19",
					"sell(uint256)": "e4849b32",
					"totalSupply()": "18160ddd",
					"transfer(address,uint256)": "a9059cbb"
				}
			},
			"storageLayout": {
				"storage": [
					{
						"astId": 320,
						"contract": "B226328_part2.sol:Part2_token",
						"label": "owner",
						"offset": 0,
						"slot": "0",
						"type": "t_address_payable"
					},
					{
						"astId": 322,
						"contract": "B226328_part2.sol:Part2_token",
						"label": "name",
						"offset": 0,
						"slot": "1",
						"type": "t_string_storage"
					},
					{
						"astId": 324,
						"contract": "B226328_part2.sol:Part2_token",
						"label": "symbol",
						"offset": 0,
						"slot": "2",
						"type": "t_string_storage"
					},
					{
						"astId": 326,
						"contract": "B226328_part2.sol:Part2_token",
						"label": "price",
						"offset": 0,
						"slot": "3",
						"type": "t_uint256"
					},
					{
						"astId": 328,
						"contract": "B226328_part2.sol:Part2_token",
						"label": "totalsupply",
						"offset": 0,
						"slot": "4",
						"type": "t_uint256"
					},
					{
						"astId": 332,
						"contract": "B226328_part2.sol:Part2_token",
						"label": "balances",
						"offset": 0,
						"slot": "5",
						"type": "t_mapping(t_address,t_uint256)"
					},
					{
						"astId": 336,
						"contract": "B226328_part2.sol:Part2_token",
						"label": "roles",
						"offset": 0,
						"slot": "6",
						"type": "t_mapping(t_address,t_bool)"
					}
				],
				"types": {
					"t_address": {
						"encoding": "inplace",
						"label": "address",
						"numberOfBytes": "20"
					},
					"t_address_payable": {
						"encoding": "inplace",
						"label": "address payable",
						"numberOfBytes": "20"
					},
					"t_bool": {
						"encoding": "inplace",
						"label": "bool",
						"numberOfBytes": "1"
					},
					"t_mapping(t_address,t_bool)": {
						"encoding": "mapping",
						"key": "t_address",
						"label": "mapping(address => bool)",
						"numberOfBytes": "32",
						"value": "t_bool"
					},
					"t_mapping(t_address,t_uint256)": {
						"encoding": "mapping",
						"key": "t_address",
						"label": "mapping(address => uint256)",
						"numberOfBytes": "32",
						"value": "t_uint256"
					},
					"t_string_storage": {
						"encoding": "bytes",
						"label": "string",
						"numberOfBytes": "32"
					},
					"t_uint256": {
						"encoding": "inplace",
						"label": "uint256",
						"numberOfBytes": "32"
					}
				}
			},
			"userdoc": {
				"kind": "user",
				"methods": {},
				"version": 1
			}
		}
	}
}