{
	"test.sol": {
		"Timer": {
			"abi": [
				{
					"inputs": [],
					"stateMutability": "nonpayable",
					"type": "constructor"
				},
				{
					"inputs": [],
					"name": "getElapsedTime",
					"outputs": [
						{
							"internalType": "uint256",
							"name": "",
							"type": "uint256"
						}
					],
					"stateMutability": "view",
					"type": "function"
				},
				{
					"inputs": [],
					"name": "startTime",
					"outputs": [
						{
							"internalType": "uint256",
							"name": "",
							"type": "uint256"
						}
					],
					"stateMutability": "view",
					"type": "function"
				}
			],
			"devdoc": {
				"kind": "dev",
				"methods": {},
				"version": 1
			},
			"evm": {
				"assembly": "    /* \"test.sol\":33:267  contract Timer {\r... */\n  mstore(0x40, 0x80)\n    /* \"test.sol\":85:152  constructor() public {\r... */\n  callvalue\n  dup1\n  iszero\n  tag_1\n  jumpi\n  0x00\n  dup1\n  revert\ntag_1:\n  pop\n    /* \"test.sol\":129:144  block.timestamp */\n  timestamp\n    /* \"test.sol\":117:126  startTime */\n  0x00\n    /* \"test.sol\":117:144  startTime = block.timestamp */\n  dup2\n  swap1\n  sstore\n  pop\n    /* \"test.sol\":33:267  contract Timer {\r... */\n  dataSize(sub_0)\n  dup1\n  dataOffset(sub_0)\n  0x00\n  codecopy\n  0x00\n  return\nstop\n\nsub_0: assembly {\n        /* \"test.sol\":33:267  contract Timer {\r... */\n      mstore(0x40, 0x80)\n      callvalue\n      dup1\n      iszero\n      tag_1\n      jumpi\n      0x00\n      dup1\n      revert\n    tag_1:\n      pop\n      jumpi(tag_2, lt(calldatasize, 0x04))\n      shr(0xe0, calldataload(0x00))\n      dup1\n      0x125d7020\n      eq\n      tag_3\n      jumpi\n      dup1\n      0x78e97925\n      eq\n      tag_4\n      jumpi\n    tag_2:\n      0x00\n      dup1\n      revert\n        /* \"test.sol\":160:264  function getElapsedTime() public view returns (uint) {\r... */\n    tag_3:\n      tag_5\n      tag_6\n      jump\t// in\n    tag_5:\n      mload(0x40)\n      tag_7\n      swap2\n      swap1\n      tag_8\n      jump\t// in\n    tag_7:\n      mload(0x40)\n      dup1\n      swap2\n      sub\n      swap1\n      return\n        /* \"test.sol\":55:76  uint public startTime */\n    tag_4:\n      tag_9\n      tag_10\n      jump\t// in\n    tag_9:\n      mload(0x40)\n      tag_11\n      swap2\n      swap1\n      tag_8\n      jump\t// in\n    tag_11:\n      mload(0x40)\n      dup1\n      swap2\n      sub\n      swap1\n      return\n        /* \"test.sol\":160:264  function getElapsedTime() public view returns (uint) {\r... */\n    tag_6:\n        /* \"test.sol\":207:211  uint */\n      0x00\n        /* \"test.sol\":247:256  startTime */\n      dup1\n      sload\n        /* \"test.sol\":231:246  block.timestamp */\n      timestamp\n        /* \"test.sol\":231:256  block.timestamp-startTime */\n      tag_13\n      swap2\n      swap1\n      tag_14\n      jump\t// in\n    tag_13:\n        /* \"test.sol\":224:256  return block.timestamp-startTime */\n      swap1\n      pop\n        /* \"test.sol\":160:264  function getElapsedTime() public view returns (uint) {\r... */\n      swap1\n      jump\t// out\n        /* \"test.sol\":55:76  uint public startTime */\n    tag_10:\n      sload(0x00)\n      dup2\n      jump\t// out\n        /* \"#utility.yul\":7:125   */\n    tag_16:\n        /* \"#utility.yul\":94:118   */\n      tag_18\n        /* \"#utility.yul\":112:117   */\n      dup2\n        /* \"#utility.yul\":94:118   */\n      tag_19\n      jump\t// in\n    tag_18:\n        /* \"#utility.yul\":89:92   */\n      dup3\n        /* \"#utility.yul\":82:119   */\n      mstore\n        /* \"#utility.yul\":7:125   */\n      pop\n      pop\n      jump\t// out\n        /* \"#utility.yul\":131:353   */\n    tag_8:\n        /* \"#utility.yul\":224:228   */\n      0x00\n        /* \"#utility.yul\":262:264   */\n      0x20\n        /* \"#utility.yul\":251:260   */\n      dup3\n        /* \"#utility.yul\":247:265   */\n      add\n        /* \"#utility.yul\":239:265   */\n      swap1\n      pop\n        /* \"#utility.yul\":275:346   */\n      tag_21\n        /* \"#utility.yul\":343:344   */\n      0x00\n        /* \"#utility.yul\":332:341   */\n      dup4\n        /* \"#utility.yul\":328:345   */\n      add\n        /* \"#utility.yul\":319:325   */\n      dup5\n        /* \"#utility.yul\":275:346   */\n      tag_16\n      jump\t// in\n    tag_21:\n        /* \"#utility.yul\":131:353   */\n      swap3\n      swap2\n      pop\n      pop\n      jump\t// out\n        /* \"#utility.yul\":359:550   */\n    tag_14:\n        /* \"#utility.yul\":399:403   */\n      0x00\n        /* \"#utility.yul\":419:439   */\n      tag_23\n        /* \"#utility.yul\":437:438   */\n      dup3\n        /* \"#utility.yul\":419:439   */\n      tag_19\n      jump\t// in\n    tag_23:\n        /* \"#utility.yul\":414:439   */\n      swap2\n      pop\n        /* \"#utility.yul\":453:473   */\n      tag_24\n        /* \"#utility.yul\":471:472   */\n      dup4\n        /* \"#utility.yul\":453:473   */\n      tag_19\n      jump\t// in\n    tag_24:\n        /* \"#utility.yul\":448:473   */\n      swap3\n      pop\n        /* \"#utility.yul\":492:493   */\n      dup3\n        /* \"#utility.yul\":489:490   */\n      dup3\n        /* \"#utility.yul\":486:494   */\n      lt\n        /* \"#utility.yul\":483:517   */\n      iszero\n      tag_25\n      jumpi\n        /* \"#utility.yul\":497:515   */\n      tag_26\n      tag_27\n      jump\t// in\n    tag_26:\n        /* \"#utility.yul\":483:517   */\n    tag_25:\n        /* \"#utility.yul\":542:543   */\n      dup3\n        /* \"#utility.yul\":539:540   */\n      dup3\n        /* \"#utility.yul\":535:544   */\n      sub\n        /* \"#utility.yul\":527:544   */\n      swap1\n      pop\n        /* \"#utility.yul\":359:550   */\n      swap3\n      swap2\n      pop\n      pop\n      jump\t// out\n        /* \"#utility.yul\":556:633   */\n    tag_19:\n        /* \"#utility.yul\":593:600   */\n      0x00\n        /* \"#utility.yul\":622:627   */\n      dup2\n        /* \"#utility.yul\":611:627   */\n      swap1\n      pop\n        /* \"#utility.yul\":556:633   */\n      swap2\n      swap1\n      pop\n      jump\t// out\n        /* \"#utility.yul\":639:819   */\n    tag_27:\n        /* \"#utility.yul\":687:764   */\n      0x4e487b7100000000000000000000000000000000000000000000000000000000\n        /* \"#utility.yul\":684:685   */\n      0x00\n        /* \"#utility.yul\":677:765   */\n      mstore\n        /* \"#utility.yul\":784:788   */\n      0x11\n        /* \"#utility.yul\":781:782   */\n      0x04\n        /* \"#utility.yul\":774:789   */\n      mstore\n        /* \"#utility.yul\":808:812   */\n      0x24\n        /* \"#utility.yul\":805:806   */\n      0x00\n        /* \"#utility.yul\":798:813   */\n      revert\n\n    auxdata: 0xa2646970667358221220df370d142611032585e5c67bf6c7c7a0ec757b6077bbe747da6baf27e1668a4864736f6c63430008070033\n}\n",
				"bytecode": {
					"linkReferences": {},
					"object": "608060405234801561001057600080fd5b504260008190555061015e806100276000396000f3fe608060405234801561001057600080fd5b50600436106100365760003560e01c8063125d70201461003b57806378e9792514610059575b600080fd5b610043610077565b60405161005091906100a0565b60405180910390f35b61006161008b565b60405161006e91906100a0565b60405180910390f35b600080544261008691906100bb565b905090565b60005481565b61009a816100ef565b82525050565b60006020820190506100b56000830184610091565b92915050565b60006100c6826100ef565b91506100d1836100ef565b9250828210156100e4576100e36100f9565b5b828203905092915050565b6000819050919050565b7f4e487b7100000000000000000000000000000000000000000000000000000000600052601160045260246000fdfea2646970667358221220df370d142611032585e5c67bf6c7c7a0ec757b6077bbe747da6baf27e1668a4864736f6c63430008070033",
					"opcodes": "PUSH1 0x80 PUSH1 0x40 MSTORE CALLVALUE DUP1 ISZERO PUSH2 0x10 JUMPI PUSH1 0x0 DUP1 REVERT JUMPDEST POP TIMESTAMP PUSH1 0x0 DUP2 SWAP1 SSTORE POP PUSH2 0x15E DUP1 PUSH2 0x27 PUSH1 0x0 CODECOPY PUSH1 0x0 RETURN INVALID PUSH1 0x80 PUSH1 0x40 MSTORE CALLVALUE DUP1 ISZERO PUSH2 0x10 JUMPI PUSH1 0x0 DUP1 REVERT JUMPDEST POP PUSH1 0x4 CALLDATASIZE LT PUSH2 0x36 JUMPI PUSH1 0x0 CALLDATALOAD PUSH1 0xE0 SHR DUP1 PUSH4 0x125D7020 EQ PUSH2 0x3B JUMPI DUP1 PUSH4 0x78E97925 EQ PUSH2 0x59 JUMPI JUMPDEST PUSH1 0x0 DUP1 REVERT JUMPDEST PUSH2 0x43 PUSH2 0x77 JUMP JUMPDEST PUSH1 0x40 MLOAD PUSH2 0x50 SWAP2 SWAP1 PUSH2 0xA0 JUMP JUMPDEST PUSH1 0x40 MLOAD DUP1 SWAP2 SUB SWAP1 RETURN JUMPDEST PUSH2 0x61 PUSH2 0x8B JUMP JUMPDEST PUSH1 0x40 MLOAD PUSH2 0x6E SWAP2 SWAP1 PUSH2 0xA0 JUMP JUMPDEST PUSH1 0x40 MLOAD DUP1 SWAP2 SUB SWAP1 RETURN JUMPDEST PUSH1 0x0 DUP1 SLOAD TIMESTAMP PUSH2 0x86 SWAP2 SWAP1 PUSH2 0xBB JUMP JUMPDEST SWAP1 POP SWAP1 JUMP JUMPDEST PUSH1 0x0 SLOAD DUP2 JUMP JUMPDEST PUSH2 0x9A DUP2 PUSH2 0xEF JUMP JUMPDEST DUP3 MSTORE POP POP JUMP JUMPDEST PUSH1 0x0 PUSH1 0x20 DUP3 ADD SWAP1 POP PUSH2 0xB5 PUSH1 0x0 DUP4 ADD DUP5 PUSH2 0x91 JUMP JUMPDEST SWAP3 SWAP2 POP POP JUMP JUMPDEST PUSH1 0x0 PUSH2 0xC6 DUP3 PUSH2 0xEF JUMP JUMPDEST SWAP2 POP PUSH2 0xD1 DUP4 PUSH2 0xEF JUMP JUMPDEST SWAP3 POP DUP3 DUP3 LT ISZERO PUSH2 0xE4 JUMPI PUSH2 0xE3 PUSH2 0xF9 JUMP JUMPDEST JUMPDEST DUP3 DUP3 SUB SWAP1 POP SWAP3 SWAP2 POP POP JUMP JUMPDEST PUSH1 0x0 DUP2 SWAP1 POP SWAP2 SWAP1 POP JUMP JUMPDEST PUSH32 0x4E487B7100000000000000000000000000000000000000000000000000000000 PUSH1 0x0 MSTORE PUSH1 0x11 PUSH1 0x4 MSTORE PUSH1 0x24 PUSH1 0x0 REVERT INVALID LOG2 PUSH5 0x6970667358 0x22 SLT KECCAK256 0xDF CALLDATACOPY 0xD EQ 0x26 GT SUB 0x25 DUP6 0xE5 0xC6 PUSH28 0xF6C7C7A0EC757B6077BBE747DA6BAF27E1668A4864736F6C63430008 SMOD STOP CALLER "
				},
				"gasEstimates": {
					"creation": {
						"codeDepositCost": "70000",
						"executionCost": "22230",
						"totalCost": "92230"
					},
					"external": {
						"getElapsedTime()": "infinite",
						"startTime()": "2429"
					}
				},
				"methodIdentifiers": {
					"getElapsedTime()": "125d7020",
					"startTime()": "78e97925"
				}
			},
			"storageLayout": {
				"storage": [
					{
						"astId": 3,
						"contract": "test.sol:Timer",
						"label": "startTime",
						"offset": 0,
						"slot": "0",
						"type": "t_uint256"
					}
				],
				"types": {
					"t_uint256": {
						"encoding": "inplace",
						"label": "uint256",
						"numberOfBytes": "32"
					}
				}
			},
			"userdoc": {
				"kind": "user",
				"methods": {},
				"version": 1
			}
		}
	}
}